:100000000C9415050C9432050C9432050C943205B1
:100010000C9432050C9432050C9432050C94021B9E
:100020000C9432050C9432050C9432050C943C1C53
:100030000C9432050C9432050C9432050C94320564
:100040000C9432050C9432050C94DA1D0C94320594
:100050000C9432050C94DF090C9432050C94320593
:100060000C9432050C943205416C61726D21205460
:10007000454D5045524154555245203E20373000A1
:10008000416C61726D212054454D5045524154558B
:1000900052452121210020416C61726D21204E6F5B
:1000A0007420656E65726779212121002057617285
:1000B0006E696E672120456E657267792066726F82
:1000C0006D2055746B696E612E00205761726E69E8
:1000D0006E672120456E657267792066726F6D20AC
:1000E00043686170656B612E00656E65726779208B
:1000F00066726F6D2055746B696E612E00656E655A
:100100007267792066726F6D2043686170656B61FC
:100110002E00626174746572793D256425252E2058
:1001200000655F706F7765723D25752E2000733D09
:10013000256425252C20007273745F6D63753D2541
:100140006C752C200074656D703D2564432C200077
:1001500074696D653D25756425756825756D257512
:10016000732C20004465703D25732C2000416C6188
:10017000726D21204E6F7420656E65726779212142
:1001800021005761726E696E672120456E65726746
:10019000792066726F6D2055746B696E612E005701
:1001A00061726E696E672120456E6572677920669F
:1001B000726F6D2043686170656B612E00656E65BE
:1001C0007267792066726F6D2055746B696E612E4F
:1001D00000656E657267792066726F6D2043686195
:1001E00070656B612E007273745F6D63753D256C75
:1001F000752E2000426174746572793D2564252551
:100200002C200047534D3D256425252C20005465A6
:100210006D70657261747572653D2564432C2000B4
:1002200054696D653D25756425756825756D257561
:10023000732C20004465706F7369743D25732052E0
:1002400055422C20006C6F7720626174746572795E
:100250000042617474657279204C4F57212121004E
:10026000636865636B2062617474657279004578B8
:100270007465726E616C20706F776572206973208F
:100280006F66662E0045787465726E616C20706FC3
:10029000776572206973206F66662E00706F7765D0
:1002A00072202D2D2D0045787465726E616C207062
:1002B0006F776572206973206F6E2E0045787465C4
:1002C000726E616C20706F776572206973206F6E3B
:1002D0002E00706F776572202B2B2B2E004E4F5403
:1002E0005F454E455247590D0A00454E4552475904
:1002F0002046524F4D2055544B494E4100454E45E6
:100300005247592046524F4D2055544B494E410DAE
:100310000A00454E455247592046524F4D2043480A
:100320004150454B4100454E455247592046524F9A
:100330004D2043484150454B410D0A00454E455222
:100340004759202B2B2B00454E45524759202B2B2C
:100350002B0D0A004E4F545F454E455247590D0A2A
:1003600000454E455247592046524F4D2043484183
:1003700050454B4100454E455247592046524F4D3E
:100380002043484150454B410D0A00454E455247D8
:10039000592046524F4D2055544B494E4100454E31
:1003A000455247592046524F4D2055544B494E41D6
:1003B0000D0A00454E45524759202B2B2B00454E28
:1003C00045524759202B2B2B0D0A00656570726F23
:1003D0006D5F726561645F636F6E6669670D0A00C9
:1003E0004465706F736974203C203130205255424F
:1003F000004465706F736974203C20313020727541
:100400006200220D0A0041542B435553443D312CC8
:10041000220041542B444445543D310D0A004154BF
:100420002B43504D533D22534D222C22534D222C11
:1004300022534D220D0A0041542B434C49503D316B
:100440000D0A0041542B434E4D493D322C312C3086
:100450002C312C300D0A0041542B434D47463D3181
:100460000D0A00415445300D0A0041540D0A004167
:1004700054410D0A0041542B434D4744413D224411
:10048000454C20414C4C220D0A0041542B434D4712
:10049000443D25640D0A0041542B434D474C3D22F9
:1004A00052454320554E52454144220D0A002B44EB
:1004B000544D463A002B434C49503A002B434D547F
:1004C000493A0041542B434D47533D222573220D99
:1004D0000A0041542B434D47573D222573220D0AF4
:1004E000004552524F520041542B434D47533D2239
:1004F0002573220D0A0041542B4353510D006465AE
:100500006C5F736D735F696E640041542B434D479C
:10051000443D25640D0A0041542B434D53533D2562
:10052000642C222573220D0A0041542B434D474C65
:100530003D2253544F20554E53454E54220D0A0030
:100540002B435245473A0041542B435245473F0DF8
:100550000A006E6F74207265672067736D004154E6
:10056000480D0A0077616974207374722074696D94
:100570006520656E64002B44544D463A0045525246
:100580004F52002B434C43433A0041542B434C43BE
:10059000430D0A000D0A002E616D72222C302C31A1
:1005A00030302C0041542B435245433D342C2243E0
:1005B0003A5C557365725C0041542B435245433D90
:1005C000350D0A004552524F5200636D6420746924
:1005D0006D6520656E64004E6F20616E7377657285
:1005E000210043616C6C20656E6465640043414C7E
:1005F0004C5F4F55545F4449414C202E2E2E200015
:1006000041544425733B0D0A00656E642073657484
:1006100075700073746172740070617573655F72D8
:10062000656C61793D0075746B696E613D0063684E
:100630006170656B613D007265706F72745F743DCF
:10064000006163636570745F736D733D0061636324
:100650006570745F63616C6C733D00706175736588
:100660005F72656C61793D25753B007061757365DE
:100670005F72656C61793B006163636570745F7381
:100680006D733D25643B006163636570745F736DDA
:10069000733B006163636570745F63616C6C733D91
:1006A00025643B006163636570745F63616C6C73A8
:1006B0003B003B0025732C0061646D696E70686FB0
:1006C0006E65733D0061646D696E70686F6E657311
:1006D0003B004163636573732064656E6965640004
:1006E0007365742061646D696E206F6B006F6B00C1
:1006F00061646D696E70686F6E65733D0041636320
:100700006573732064656E696564007265706F72ED
:10071000743B004163636573732064656E6965644F
:100720000068656C707365743B0041636365737347
:100730002064656E6965640068656C706765743B0C
:10074000004163636573732064656E696564006866
:10075000656C703B00526573657420636F6D6D61ED
:100760006E642061636365707465642E0041636329
:100770006573732064656E696564007265626F6F8E
:10078000743B004465766963652072657365742007
:1007900064656661756C742C2073656E6420616499
:1007A0006D696E70686F6E65733D4E554D42455272
:1007B0005F50484F4E455300416363657373206437
:1007C000656E6965640072657365746465666175FC
:1007D0006C743B00726573756C74696E6720534D61
:1007E00053207465787420697320746F6F206C6F68
:1007F0006E67006572726F720073656E645F736D11
:10080000730D0A004163636573732064656E6965E7
:1008100064006765743A006572726F72006F6B00F6
:100820004163636573732064656E69656400736515
:10083000743A006E6F742070686F6E650070686F38
:100840006E65206F6B007365743A616363657074E5
:100850005F63616C6C733D3B6163636570745F7370
:100860006D733D3B7265706F72745F743D3B757460
:100870006B696E613D3B63686170656B613D3B70A8
:10088000617573655F72656C61793D3B00000000C6
:100890000000000000000000000000000000000058
:1008A0000000000000000000000000000000000048
:1008B0000000000000000000000000000000000038
:1008C0000000000000000000000000000000000028
:1008D0000000000000000000000000000000000018
:1008E000000000000000006765743A61646D696E85
:1008F00070686F6E65733B6163636570745F63619D
:100900006C6C733B6163636570745F736D733B7292
:1009100065706F72745F743B00000000000000009F
:1009200000000000000000000000000000000000C7
:1009300000000000000000000000000000000000B7
:1009400000000000000000000000000000000000A7
:100950000000000000000000000000000000000097
:100960000000000000000000000000000000000087
:100970000000000000000000000000000000000077
:10098000000000000000000068656C707365743B37
:1009900068656C706765743B7265706F72743B61FB
:1009A000646D696E70686F6E65733B7265626F6FC0
:1009B000743B726573657464656661756C743B0045
:1009C0000000000000000000000000000000000027
:1009D0000000000000000000000000000000000017
:1009E0000000000000000000000000000000000007
:1009F00000000000000000000000000000000000F7
:100A000000000000000000000000000000000000E6
:100A100000000000000000000000000000000000D6
:100A20000000000000000000000011241FBECFEFF6
:100A3000D8E0DEBFCDBF11E0A0E0B1E0E8EEFBE41E
:100A400002C005900D92A23AB107D9F724E0A2EABC
:100A5000B1E001C01D92A835B207E1F70E947B1EEC
:100A60000C94F2250C940000CF92DF92EF92FF924B
:100A7000CF93DF9300D000D000D0CDB7DEB70E9477
:100A800042178D830E94CB0B8E838091BC012D81F8
:100A9000821711F10E94FC1C6B017C010E94080C62
:100AA000C80ED11CE11CF11CC092B801D092B90152
:100AB000E092BA01F092BB013D813093BC012696D1
:100AC0000FB6F894DEBF0FBECDBFDF91CF91FF9080
:100AD000EF90DF90CF9008950E94FC1C69837A8389
:100AE0008B839C838091B8019091B901A091BA0148
:100AF000B091BB0129813A814B815C81281739076C
:100B00004A075B07E0F28091B7013E81831305C07D
:100B1000809102014D81841791F25E81523009F07B
:100B20005DC05093B7018D818330E1F45D9A80936D
:100B300002018EEB93E00E940F1C0E94C50B8130D6
:100B400009F0BDCF83EB93E026960FB6F894DEBF95
:100B50000FBECDBFDF91CF91FF90EF90DF90CF9090
:100B60000C9435119D81913079F45D989093020138
:100B70008EE993E00E940F1C0E94C50B813009F0A2
:100B80009ECF8BE893E0E0CF2D81223079F45D9AFF
:100B90002093020185E793E00E940F1C0E94C50B81
:100BA000813009F08CCF81E693E0CECF3D813111C9
:100BB00086CF84E593E00E940F1C81E00E94C80B61
:100BC0000E94A80B5D980E94BF0B813021F482E146
:100BD00091E00E94D50F1092020171CF4E814130F9
:100BE00009F06DCF4093B7015D81533079F45D9882
:100BF0005093020187E493E00E940F1C0E94C50BF2
:100C0000813009F05CCF8CE393E09ECF8D81823000
:100C100079F45D9A8093020186E293E00E940F1CB2
:100C20000E94C50B813009F04ACF82E193E08CCF5E
:100C30009D81913079F45D98909302018DEF92E05F
:100C40000E940F1C0E94C50B813009F038CF8AEE3C
:100C500092E07ACF2D81211132CF8DED92E00E946A
:100C60000F1CB0CF0E944217811114C08091BD01AA
:100C70009091BE01A091BF01B091C0010196A11D4C
:100C8000B11D8093BD019093BE01A093BF01B093AD
:100C9000C001089580E090E0DC01F3CFCF93DF93B3
:100CA00000D000D0CDB7DEB78091BD019091BE01DC
:100CB000A091BF01B091C001BC01CD010F900F9078
:100CC0000F900F90DF91CF910895ECE7F0E08081D5
:100CD000806C8083EAE7F0E0808186608083808199
:100CE0008E7F80830895CF93DF9300D000D00F9242
:100CF000CDB7DEB78D8380917C00807F80937C00B0
:100D00004D81483009F060C080917C0088608093FC
:100D10007C0080917A00806880937A0080917A00CC
:100D2000886080937A0083B7826083BF84E190E01B
:100D30000E94441D80917A00806480937A008091A3
:100D40007A0086FDFCCF82E390E019821A821B8232
:100D50001C8223B7216023BF20917A0026FDFCCF9F
:100D600023B72E7F23BFF89420917800309179002B
:100D7000789449815A816B817C81420F531F611D98
:100D8000711D49835A836B837C83019711F780918E
:100D90007A008F7780937A005D815830E9F4698119
:100DA0007A818B819C8122E330E040E050E00E9418
:100DB000F01E2E533140C9010F900F900F900F90ED
:100DC0000F90DF91CF9108955D81553009F0A1CF4B
:100DD00080917C0085609BCF6D8130E020E06530A4
:100DE00051F769817A818B819C8122E330E040E078
:100DF00050E00E94F01EDFCF0F9385E00E94730643
:100E00009C01213682E0380754F481E00E94C80B2F
:100E10000E94A80B0E944E1380E00F910895C90113
:100E20008D3B22E0920714F08CEB92E004E620E088
:100E30004CEB52E062E672E00E94AD0CEECFCF9236
:100E4000DF92EF92FF92CF93DF9300D000D0CDB727
:100E5000DEB78091BD019091BE01A091BF01B0911C
:100E6000C001892B8A2B8B2B09F06FC00E94B60B17
:100E7000882309F45FC08091B601811107C081E029
:100E80008093B60182ED92E00E940F1C80910101D7
:100E9000811149C00E94FC1C6093B2017093B301A0
:100EA0008093B4019093B50181E080930101809318
:100EB000B1010E94B60B282F30E0ACE3B0E00E94F5
:100EC0000F1FC090B201D090B301E090B401F09038
:100ED000B501C60ED71EE81EF91E0E94FC1C6983D0
:100EE0007A838B839C83C616D706E806F90610F52D
:100EF0001092B10181E0809300018CEB92E00E949E
:100F00000F1C0E94C50B8130A9F486EA92E00F9075
:100F10000F900F900F90DF91CF91FF90EF90DF90A7
:100F2000CF900C9435119091B101913019F481302A
:100F300009F4BFCF0F900F900F900F90DF91CF91DA
:100F4000FF90EF90DF90CF9008950E94B00B882320
:100F500089F32FB7F8948091BD019091BE01A091C3
:100F6000BF01B091C0012FBF8093AD019093AE013E
:100F7000A093AF01B093B0010E94FC1C6093B2013A
:100F80007093B3018093B4019093B5018091B60141
:100F9000813031F41092B6018CE992E00E940F1C6E
:100FA000809100018130E9F40E94B00B282F30E0DD
:100FB000ACE3B0E00E940F1F69837A838B839C832C
:100FC0008091AD019091AE01A091AF01B091B001BF
:100FD00029813A814B815C81281739074A075B07D1
:100FE00020F08091AC018130F9F41092AC011092A4
:100FF00001011092000181E08093AB010E94FC1C72
:101000006093A7017093A8018093A9019093AA010E
:1010100085E892E00E940F1C0E94C50B813021F4EC
:101020008EE692E00E9435118091AB01813009F08B
:1010300081CF0E94FC1C69837A838B839C8380917F
:10104000A7019091A801A091A901B091AA01885887
:101050009F4FAF4FBF4F29813A814B815C818217EF
:101060009307A407B50708F065CF80E692E00E94D9
:101070000F1C0E94FC1C6093A7017093A801809331
:10108000A9019093AA010E94FC06893108F052CF71
:101090001092AB010E94C50B813021F481E592E0F2
:1010A0000E94351185E492E00F900F900F900F9001
:1010B000DF91CF91FF90EF90DF90CF900C940F1CB9
:1010C00085E00E947306813692400CF008950E94DC
:1010D0003C1D85E00E94771DF3CF2F923F924F92E7
:1010E0005F926F927F928F929F92AF92BF92CF92B8
:1010F000DF92EF92FF920F931F93CF93DF93CDB7C1
:10110000DEB7C55AD1090FB6F894DEBF0FBECDBF0A
:10111000082FCB55DF4F9883C55AD0400E94AA1D97
:1011200020E831E541E050E00E94CE1E922E832E51
:1011300020E13EE040E050E00E94CE1E322E232E01
:10114000CF55DF4F688379838A839B83C15AD04010
:101150002CE330E040E050E00E94CE1E29012CE359
:10116000249DC001259D900D1124CF55DF4FC880CF
:10117000D980C15AD040C81AD90A0E944217182FE4
:101180008AE191E00E9446150E9405179F938F9374
:1011900084E392E09F938F939E012F5F3F4F59010D
:1011A0003F932F930E94A0227501E80EF91EDF9253
:1011B000CF925F924F922F923F928F929F9280E2B6
:1011C00092E09F938F93FF92EF920E94A022E80EED
:1011D000F91E88E00E9473069F938F938EE092E041
:1011E0009F938F93FF92EF920E94A022E80EF91E28
:1011F0000E94A50D1F928F9383E092E09F938F939F
:10120000FF92EF920E94A022E80EF91E0FB6F8940A
:10121000DEBF0FBECDBF8091BD019091BE01A091F8
:10122000BF01B091C0016501892B8A2B8B2BA1F0E6
:101230000E94FC061F928F9384EF91E09F938F93FF
:10124000FF92EF920E94A022E80EF91E0F900F90DD
:101250000F900F900F900F900E94D70B9F938F933A
:101260007F936F9386EE91E09F938F93FF92EF921F
:101270000E94A0228E0D9F1D0FB6F894DEBF0FBEF8
:10128000CDBF1330C9F560E271E00E941222F82E42
:10129000192F0E94CB0B61ED71E0823031F00E947A
:1012A000CB0B813031F46DEB71E08F2D912F0E94CB
:1012B000C221602FCB55DF4F7881C55AD040C6017F
:1012C0000E945D11CB55DF4F0FB6F894DEBF0FBE05
:1012D000CDBFDF91CF911F910F91FF90EF90DF90E5
:1012E000CF90BF90AF909F908F907F906F905F90C6
:1012F0004F903F902F9008956FE971E01230B9F24E
:1013000062E871E0113099F21111D3CF6DE671E00E
:10131000CECFCF93DF9300D000D0CDB7DEB7809192
:10132000A601813009F444C00E94FF0B882309F410
:101330003FC00E94FC1C69837A838B839C838091CD
:10134000A2019091A301A091A401B091A501CC9616
:10135000A11DB11D29813A814B815C8182179307C0
:10136000A407B50728F50E94FC1C6093A2017093A6
:10137000A3018093A4019093A50188E00E947306C5
:1013800087349105ACF081E08093A60180E890E07D
:101390000E940F1C0E94C50B813051F488E690E03A
:1013A0000F900F900F900F90DF91CF910C9435110B
:1013B0000F900F900F900F90DF91CF910895189597
:1013C0000F931F93CF93DF93CDB7DEB72A970FB656
:1013D000F894DEBF0FBECDBFCE010196209152041E
:1013E000309153048C012115310511F428E534E0C6
:1013F0004AE0B801821B930B0E9473228BE291E0BA
:101400000E94F41BC8010E94001C2A960FB6F89493
:10141000DEBF0FBECDBFDF91CF911F910F91089519
:101420003F924F925F926F927F928F929F92AF9274
:10143000BF92CF92DF92EF92FF920F931F93CF93C1
:10144000DF93CDB7DEB7C856D1090FB6F894DEBF2B
:101450000FBECDBF0E94AA1D20E831E541E050E05B
:101460000E94CE1EC22E932E20E13EE040E050E0CE
:101470000E94CE1E822E332EA9966CAF7DAF8EAF0A
:101480009FAFA9972CE330E040E050E00E94CE1ED1
:1014900029012CE3249DC001259D900D1124A796C0
:1014A0000EAD1FADA797081B190B0E944217D82E2F
:1014B0000E9405179F938F9384E691E09F938F93EB
:1014C000CE0101967C019F938F930E94A022570129
:1014D000A80EB91E1F930F935F924F923F928F9267
:1014E0009F92CF9280E591E09F938F93BF92AF92AE
:1014F0000E94A0228501080F191F88E00E94730630
:101500009F938F9385E491E09F938F931F930F9305
:101510000E94A022080F191F0E94D70B9F938F9340
:101520007F936F9387E391E09F938F931F930F9324
:101530000E94A022080F191F0FB6F894DEBF0FBE3D
:10154000CDBF0E94A50D1F928F938EE291E09F93D5
:101550008F931F930F930E94A022080F191F0F90C3
:101560000F900F900F900F900F908091BD018111FF
:1015700048C01F9281E08F9381E291E09F938F9307
:101580001F930F930E94A022800F911F0F900F9026
:101590000F900F900F900F9023E0D21239C061E3AB
:1015A00071E00E9412228C010E94CB0B6DEF70E063
:1015B000823031F00E94CB0B813029F469EE70E06B
:1015C000C8010E94C221C7010E94001C0E94E009BC
:1015D000C859DF4F0FB6F894DEBF0FBECDBFDF9105
:1015E000CF911F910F91FF90EF90DF90CF90BF9020
:1015F000AF909F908F907F906F905F904F903F90B3
:1016000008950E94FC061F928F9382E191E0B6CF6D
:1016100022E06AEC70E0D216A1F221E06CEA70E000
:10162000D21679F2D110CFCF66E970E0CACF9C0113
:101630008FB7F894F999FECF32BD21BD60BD94E01B
:101640009FBB92E09FBB8FBF08959C01F999FECF8D
:1016500032BD21BDF89A80B50895EF92FF920F93A5
:101660001F93CF93DF93EC01CA018E01060F171F62
:10167000C017D10739F4DF91CF911F910F91FF90DF
:10168000EF9008957C012FEFE21AF20A69910E940F
:10169000170BC701EDCFEF92FF920F931F93CF93DC
:1016A000DF93EC01CA018E01060F171FC017D10787
:1016B00039F4DF91CF911F910F91FF90EF90089532
:1016C0007C012FEFE21AF20A0E94250B8993C701D1
:1016D000EDCF44E550E070E060E081EC91E00C94E7
:1016E000882544E550E070E060E081EC91E00E94E4
:1016F000562580910D028B3A51F18BEC93E00E94BC
:101700000F1CE1ECF1E080E5DF011D928A95E9F71D
:1017100081E08093110292E09093120280930E0276
:1017200080930F0280930C029BEA90930D028093AA
:10173000130285E0809314028DE0EAE3F1E0A6EC69
:10174000B1E001900D928A95E1F70C94690B089530
:1017500044E550E070E060E081EC91E00C94662597
:1017600080911102089580931102089580911202D0
:10177000089580931202089580930E020895809137
:101780000E02089580930F02089580910F0208952C
:1017900080930C02089580910C0208956093C1011A
:1017A0007093C2018093C3019093C4010895CF93B5
:1017B000DF9300D000D0CDB7DEB78091C10190910A
:1017C000C201A091C301B091C401BC01CD010F9031
:1017D0000F900F900F90DF91CF910895E1ECF1E021
:1017E00080819181A281B3810196A11DB11D808369
:1017F0009183A283B3830895809313020895809107
:101800001302089580930D020895809314020895A1
:10181000809114020895982F80ED890F8A3070F01E
:101820008FEB890F863018F489EC890F08958FE9C2
:10183000890F863010F489EAF8CF80E00895CF93BD
:10184000DF9300D000D0CDB7DEB70E94FC1C6983C7
:101850007A838B839C8380911E0290911F02A091BA
:101860002002B091210229813A814B815C81281BA1
:10187000390B4A0B5B0BDA01C9010B97A105B105C6
:1018800040F080911D02882321F08093380210924D
:101890001D020E94061E811109C090E080E00F9099
:1018A0000F900F900F90DF91CF9108950E94FC1C34
:1018B00060931E0270931F02809320029093210276
:1018C0000E94F91D90911D029923E1F0933029F7B0
:1018D00020911B0230911C02F901E55BFD4F8083D2
:1018E000A9014F5F5F4F50931C0240931B0240348D
:1018F00091E0590710F110921C0210921B021092F5
:101900001D02CBCF882349F28D3039F28A3029F27B
:1019100080934B0221E030E030931C0220931B02A5
:1019200093E090931D028E3309F0B7CF10924C02D2
:1019300010921D028BE492E0B2CF4230510508F4C0
:10194000ACCFF901E65BFD4F90819D3009F0A5CF4A
:101950008A3009F0A2CF1082EBCF0F931F93FB01C7
:10196000BC016E1B7F0B021B110B609FC001619FAE
:10197000900D709F900D1124BA016E1B7F0B0E9479
:10198000BA1E822F860F1F910F910895CF93DF9378
:101990000E941F0CEC01009709F488C06CEB74E006
:1019A0000E94CD21892B31F081E080933B02DF91B1
:1019B000CF91089565EB74E0CE010E94CD21892B73
:1019C000E9F06BE270E0CE0106960E941D22D82F4E
:1019D000C92F61E00E944817882361F081E080935D
:1019E0003A028DE0ED2FFC2FADE3B2E001900D92B5
:1019F0008A95E1F781E080933902D9CF6EEA74E0ED
:101A0000CE010E94CD21892B89F08F81282F082EAD
:101A1000000C330B205331092A30310538F482335E
:101A200019F134F4803391F0813399F081E0BFCF24
:101A3000833309F18433D1F760E38BE591E00E94B1
:101A4000000E88EB9BE00E94441DF0CF0E94E70D42
:101A5000EDCF82E00E94C80B60E388E491E00E9431
:101A6000000E0E94A80BE2CF81E00E94C80B60E349
:101A70008EE491E0F4CF80912B0290912C02181605
:101A80001906A4F460E384E591E00E94000E80ED65
:101A900097E00E94441D0E94E70D88EE93E00E94AB
:101AA000441D8DE392E00E946D08C0CF80E07FCF9F
:101AB000CF92DF92EF92FF921F93CF93DF9300D0EC
:101AC00000D000D0CDB7DEB77C016E83172F0E9407
:101AD000DC1CDC01CB018E0D9F1DA11DB11D6C0115
:101AE0007D010E94C60C8D83882391F06E81712F39
:101AF0008BE492E00E943222892B21F564EC75E0A0
:101B00008BE492E00E94CD21892B59F31D820BC0FA
:101B10000E94DC1CC616D706E806F90610F78AEC08
:101B200095E00E940F1C8D8126960FB6F894DEBFBB
:101B30000FBECDBFDF91CF911F91FF90EF90DF904F
:101B4000CF90089591E09D83EECF82E390E00E94D4
:101B5000441D0E94421E86EF94E00E942F1E62E602
:101B600071E080ED97E00E94580D811102C080E085
:101B700008956AE370E08BE492E00E941D22FC016C
:101B8000892BA9F38281082E000C990BC0970A9724
:101B900070F74AE050E070E060E0CF0102960E94EA
:101BA0004620462F572FBC01403251056105710573
:101BB000F0F64250510924E6249FC001259F900D64
:101BC00011246DE170E00E94BA1E862F0895CF9314
:101BD000C5E00E94421E8EE595E00E942F1E68E639
:101BE00071E080ED97E00E94580D811102C0C15054
:101BF00011F4CF91089588EC90E00E94441DE9CF44
:101C00001F93CF93DF93182FD92FC62F0E94421E08
:101C100088EB95E00E942F1E88EC90E00E94441D06
:101C20000E94421E84EA95E00E942F1E812F9D2F64
:101C30000E941C1E87E995E00E942F1E8C2F0E9497
:101C4000281E84E995E00E942F1E68E671E080ED71
:101C500097E0DF91CF911F910C94580DCF92DF92B6
:101C6000EF92FF92CF93DF9300D000D00F92CDB7C9
:101C7000DEB77C010E94DC1CDC01CB018E0D9F1DB8
:101C8000A11DB11D6C017D010E94C60C8D838823AE
:101C900019F091E09D830BC00E94DC1CC616D7068C
:101CA000E806F90688F784E695E00E940F1C8D810E
:101CB0000F900F900F900F900F90DF91CF91FF90AA
:101CC000EF90DF90CF900895CF93C5E00E94421E21
:101CD0008AE895E00E942F1E80ED97E00E942E0E6C
:101CE000882309F48EC063E875E08BE492E00E94DB
:101CF000CD21892B31F16CE270E08BE492E00E94FF
:101D00001D22009709F47DC06CE270E001960E94EC
:101D10001D22FC01892B09F474C0E1818E2F0E2E47
:101D2000000C990BC0970A9708F06BC0E053C0E015
:101D3000E83020F4F0E0E65FFE4FC0818C2FCF91B9
:101D400008956DE775E08BE492E00E94CD21892B28
:101D500009F057C066E775E08BE492E00E94CD2160
:101D6000FC01892B09F44DC08781282F082E000C17
:101D7000330B205331092A30310538F4823331F1E5
:101D800034F48033A9F08133B1F0C2E0D7CF83338C
:101D900021F18433D1F760E38BE591E00E94000EDE
:101DA00088EB9BE00E94441D83E00E94C80BEDCFAE
:101DB0000E94E70DEACF82E00E94C80B60E388E44E
:101DC00091E00E94000E0E94A80BDFCF81E00E94EC
:101DD000C80B60E38EE491E0F4CF60E384E591E02A
:101DE0000E94000E80ED97E00E94441D0E94E70DC6
:101DF00088EE93E00E94441D8DE392E00E946D08FE
:101E0000C4CFC15009F49ACF84E690E00E94441DEB
:101E10005DCFAF92BF92CF92DF92EF92FF920F937E
:101E20001F93CF93DF9300D000D00F92CDB7DEB7D2
:101E30008D83192F062FF72E0E94E70D80913C020B
:101E400081111EC020913602309137022F3F320798
:101E500009F4A9C02F5F3F4F309337022093360219
:101E60000F900F900F900F900F90DF91CF911F91D7
:101E70000F91FF90EF90DF90CF90BF90AF900895BB
:101E800080912B0290912C02181619060CF08BC031
:101E9000A5E0A98380E0C82E86E0D82E9BE4A92E79
:101EA00092E0B92E88EE93E00E94441D1F93BD81FD
:101EB000BF93DF92CF92BF92AF920E94A0228BE499
:101EC00092E00E941C1E68E671E080ED97E00E949F
:101ED000580D0F900F900F900F900F900F90882338
:101EE00009F45CC088EC90E00E94441D8DEE95E002
:101EF0000E940F1C0E94640E853071F188EC90E006
:101F00000E94441D0E94640E863079F188EC90E0B6
:101F10000E94441D0E94640E8230E1F561E3802F2F
:101F20009F2D0E94000E0E94FC1C69837A838B8384
:101F30009C836B017C018AE0C80ED11CE11CF11C62
:101F40000E94640E8230B1F082EE95E00E940F1C78
:101F50000E94E70D81E084CF84EF91E00E94441D50
:101F6000C9CF84EF91E00E94441D0E94640E863028
:101F7000C1F3CCCF0E94FC1C69837A838B839C8342
:101F80006C157D058E059F05F8F688EE93E00E949E
:101F9000441DD6CF87ED95E00E940F1C998191508A
:101FA000998391117FCF80E05BCFFF920F931F93B6
:101FB000CF93DF93082FF92E80912B0290912C0262
:101FC000C6ECD1E010E0181619069CF0DF91CF9115
:101FD0001F910F91FF900895112321F088EE93E057
:101FE0000E94441D602F7F2DCE010E94090F1F5FAC
:101FF0002E9688818B3281F3E9CFCF92DF92EF92D8
:10200000FF92CF93DF9300D000D0CDB7DEB77C0135
:102010000E94DC1CDC01CB018E0D9F1DA11DB11D9A
:102020006C017D010E94C60C882369F080914B02EF
:102030008E33E1F061EE74E08BE492E00E94CD21FA
:10204000892B81F307C00E94DC1CC616D706E80660
:10205000F90640F780E00F900F900F900F90DF91FE
:10206000CF91FF90EF90DF90CF90089581E0F3CF74
:102070001F93CF93DF93D82F192F7F936F9382ED08
:1020800094E09F938F938BE492E09F938F930E94B1
:10209000A0220F900F900F900F900F900F90CAE01A
:1020A0000E94421E8BE492E00E941C1E88EB9BE083
:1020B0000E94FD0F8823D9F00E94421E8D2F912F80
:1020C0000E941C1E84E190E00E94441D8AE10E944F
:1020D000281E68E671E080ED97E00E94580D81307F
:1020E00031F480930301DF91CF911F910895C15086
:1020F000D1F38CE291E00E94441DD2CFCF92DF92C7
:10210000EF92FF92CF93DF9300D000D0CDB7DEB730
:102110000E94DC1C6B017C0180EDC80E87E0D81E9C
:10212000E11CF11C88EC90E00E94441D0E94421EBC
:1021300087E495E00E942F1E0E94C60C882351F16F
:1021400060E475E08BE492E00E94CD210097A1F35A
:102150006CE270E00E941D22009771F34AE050E0AB
:1021600070E060E001960E944620DC01CB018B7F8D
:102170000197A105B105B9F481E080933C020F906D
:102180000F900F900F90DF91CF91FF90EF90DF9025
:10219000CF9008950E94DC1CC616D706E806F90603
:1021A00058F680E0ECCF10923C02FBCFFF920F93E9
:1021B0001F93CF93DF93182FD92FF62E072F0E944E
:1021C0007E10811108C06F2D702F812F9D2F0E94CE
:1021D0003810C0E043C080912B0290912C02181659
:1021E0001906BCF788EC90E00E94441D0F93FF9203
:1021F00083EC94E09F938F938BE492E09F938F9373
:102200000E94A0220E94421E8BE492E00E941C1EAB
:1022100088EE93E00E94FD0F0F900F900F900F90AB
:102220000F900F90882379F2812F9D2F0E942F1EEF
:1022300084E690E00E94441D8AE10E94281E6BE61D
:1022400071E080E69AEE0E94580DC82F811106C0F9
:102250006F2D702F812F9D2F0E9438108C2FDF91B2
:10226000CF911F910F91FF900895FF920F931F93AD
:10227000CF93DF93082FF92E80912B0290912C029F
:10228000C6ECD1E010E0181619069CF0DF91CF9152
:102290001F910F91FF900895112321F088EE93E094
:1022A0000E94441DBE01802F9F2D0E94D6101F5FEB
:1022B0002E9688818B3281F3E9CFFF920F931F9383
:1022C000CF93DF93182FD92FF62E072F0E947E1061
:1022D000811114C080913602909137028F3F980788
:1022E00029F0019690933702809336026F2D702F5C
:1022F000812F9D2F0E943810C0E043C080912B0297
:1023000090912C0218161906BCF788EC90E00E94F8
:10231000441D0F93FF9287EE94E09F938F938BE47D
:1023200092E09F938F930E94A0220E94421E8BE412
:1023300092E00E941C1E88EE93E00E94FD0F0F9019
:102340000F900F900F900F900F90882379F2812FAC
:102350009D2F0E941C1E84E690E00E94441D8AE18D
:102360000E94281E6BE671E080E69AEE0E94580DEE
:10237000C82F811106C06F2D702F812F9D2F0E94B5
:1023800038108C2FDF91CF911F910F91FF900895FE
:10239000FC0180818B3299F49F012F5F3F4F3D9666
:1023A000D9018C912F5F3F4F082E000C990BC097DD
:1023B0000A9728F4E217F30799F781E0089580E07F
:1023C000089584E690E00E94441D0E94421E85E725
:1023D00094E00E942F1E68E671E088EA91E60C9472
:1023E000580D8F929F92AF92BF92CF92DF92EF9251
:1023F000FF920F931F93CF93DF9300D000D00F92E3
:10240000CDB7DEB710913B02112309F464C084E616
:1024100090E00E94441D0E94421E87E994E00E94C1
:102420002F1E62E771E088E893E10E94580D813029
:1024300009F06AC06AE370E08BE492E00E941D221A
:102440009C01009771F3AC014F5F5F4F2A5F3F4FD4
:102450005A014F5F5F4FD5018C91082E000C990BEC
:10246000C0970A9708F456C02417350789F7D9CFC3
:102470008BE492E00E94F91803E08AE8A82E84E039
:10248000B82E9BE4892E92E0992E84E690E00E947B
:10249000441DDF92CF92BF92AF929F928F920E9483
:1024A000A0220E94421E8BE492E00E941C1E68E65D
:1024B00071E080E197E20E94580D0F900F900F900D
:1024C0000F900F900F90813011F00150F1F684E6DB
:1024D00090E00E94441D812F0F900F900F900F905D
:1024E0000F90DF91CF911F910F91FF90EF90DF90B0
:1024F000CF90BF90AF909F908F9008950E94E11170
:1025000010923B0211E0E7CF0E94E11110923B02D2
:1025100010E0E1CF4AE050E070E060E0C5010E94C9
:1025200046206B017C01C114D104F1E0EF06F104F7
:1025300008F077CF6CE270E0C5010E941D22009781
:1025400009F46FCF6CE270E00E941D22009709F43D
:1025500068CF6BE270E00E941D225C01009779F069
:102560000E94C811882309F45CCF8DE0F501ADE32A
:10257000B2E001900D928A95E1F710924A0288E844
:1025800093E10E942E0E182F813009F0B7CF0E94E0
:10259000DC1C4B015C01B8EE8B0EB3E09B1EA11C52
:1025A000B11C0E94DC1C6A837B838C839D8368152D
:1025B00079058A059B0508F45BCF0E94061E8823D7
:1025C00081F30E94F91D8983898189830E94DC1C23
:1025D0004B015C01E8EE8E0EE3E09E1EA11CB11CD7
:1025E000E0CFCF93DF9300D000D0CDB7DEB780919E
:1025F0003902882349F11092390280913A028823E6
:1026000009F444C08FE694E00E942F1E88EE93E008
:102610000E94441D60E389E791E00E94000E109241
:102620003A020E94FC1CDC01CB018896A11DB11D61
:102630008093170290931802A0931902B0931A0284
:102640000E94640E823039F00F900F900F900F901F
:10265000DF91CF91089588EB9BE00E94441D0E947A
:10266000FC1C69837A838B839C83809117029091F1
:102670001802A0911902B0911A0229813A814B8166
:102680005C8182179307A407B507D0F60F900F90CF
:102690000F900F90DF91CF910C94E70DCF93DF93C4
:1026A00000D000D0CDB7DEB70E94D70B69837A8304
:1026B0008B839C83603876498849910510F40E9489
:1026C000EE0B0E94A80B5F9A83E00E94771D5F9833
:1026D000F894FFCFCF92DF92EF92FF920F931F9368
:1026E000CF93DF9300D000D0CDB7DEB70E94FC1CA3
:1026F00069837A838B839C8380912702909128023F
:10270000A0912902B0912A02845D9E4FAF4FBF4F26
:1027100029813A814B815C8182179307A407B50711
:1027200010F080E020C00E947E1081110FC08091C7
:1027300026028F5F8093260282E595E00E940F1C9F
:10274000809126028530E4F00E944E1310922602FA
:102750000E94FC1C60932702709328028093290238
:1027600090932A0281E00F900F900F900F90DF91CD
:10277000CF911F910F91FF90EF90DF90CF90089530
:102780000E94FC1C60932702709328028093290208
:1027900090932A0280910301882319F284E690E045
:1027A0000E94441D0E94421E89E295E00E942F1E55
:1027B00062E771E088E893E10E94580D8130F1F4FE
:1027C0006AE370E08BE492E00E941D229C01009776
:1027D000A9F0AC014F5F5F4F2A5F3F4F5A83498397
:1027E0004F5F5F4FA981BA818C91082E000C990B25
:1027F000C0970A9760F02417350781F710920301FC
:1028000090CFC114D104E104F104C1F310C04AE037
:1028100050E070E060E089819A810E9446206B015F
:102820007C018B016430710560F30E94E1116CE260
:1028300070E089819A810E941D22009701F16CE26B
:1028400070E00E941D220097D1F06BE270E00E94C0
:102850001D2289839A83E981FA81309781F0CF0123
:102860000E94C811882359F08DE0E981FA81ADE317
:10287000B2E001900D928A95E1F710924A0288EB3E
:102880009BE00E94441D8DE392E09F938F93DF9223
:10289000CF9287E195E09F938F938BE492E09F9393
:1028A0008F930E94A0220E94421E8BE492E00E941D
:1028B0001C1E6EE771E080E69AEE0E94580D0FB67E
:1028C000F894DEBF0FBECDBF813009F02ACF33E0D0
:1028D00039838AE0E82E85E0F82E9BE4C92E92E049
:1028E000D92E84E690E00E94441D1F930F93FF921F
:1028F000EF92DF92CF920E94A0228EEF94E00E948E
:102900000F1C0E94421E8BE492E00E941C1E68E68F
:1029100071E080E797E10E94580D0F900F900F90A3
:102920000F900F900F90813009F4FBCE49814150F8
:1029300049834111D6CFF5CECF92DF92EF92FF922D
:10294000CF93DF9300D000D0CDB7DEB70E94FC1C40
:102950006B017C0188E5C80E82E0D81EE11CF11CE9
:102960000E94421E8AE694E00E942F1E68E671E0F3
:1029700088EE93E00E94580D81110EC00E94FC1C4D
:10298000C616D706E806F90610F40E944E1388EE24
:1029900093E00E94441DE4CF84EF91E00E94441D27
:1029A0000E94421E83E694E00E942F1E80ED97E075
:1029B0000E94441D0E94421E87E594E00E942F1E43
:1029C00068E671E088EB9BE00E94580D882341F295
:1029D00084EF91E00E94441D0E94421E83E494E033
:1029E0000E942F1E68E671E088EB9BE00E94580D64
:1029F000882309F4B5CF84EF91E00E94441D0E9422
:102A0000421E87E394E00E942F1E68E671E088EB87
:102A10009BE00E94580D882309F4A2CF84EF91E037
:102A20000E94441D0E94421E8EE194E00E942F1ECF
:102A300068E671E088EB9BE00E94580D882309F45A
:102A40008FCF84EF91E00E94441D0E94421E82E1DC
:102A500094E00E942F1E68E671E088EB9BE00E94E4
:102A6000580D8983882309F47BCF0E947E1083E070
:102A70000E94771D89810F900F900F900F90DF912A
:102A8000CF91FF90EF90DF90CF9008954F925F929B
:102A90006F927F928F929F92AF92BF92CF92DF926E
:102AA000EF92FF920F931F93CF93DF93CDB7DEB7D3
:102AB000C156D1090FB6F894DEBF0FBECDBF082FA7
:102AC000F92E13E00E94421E86E094E00E942F1E21
:102AD000802F9F2D0E941C1E82E094E00E942F1EDA
:102AE00068E671E080E197E20E94580D813061F55F
:102AF0000E94FC1C6B017C018AE0C80ED11CE11C09
:102B0000F11C85E891E00E94001C0E94FC1CA2962A
:102B10006CAF7DAF8EAF9FAFA2976C157D058E0514
:102B20009F05A0F40E941F0C8C01009771F362E9CD
:102B300071E00E943222892B11F581E008C084EFF8
:102B400091E00E94441DBECF1150C9F780E0CF59DB
:102B5000DF4F0FB6F894DEBF0FBECDBFDF91CF9130
:102B60001F910F91FF90EF90DF90CF90BF90AF90AB
:102B70009F908F907F906F905F904F90089562E24A
:102B800070E0C80106960E941D227C01892BF1F29B
:102B90009FEFE91AF90A8CE5F701DE011196019021
:102BA0000D928A95E1F7DE0111966D014E01B1E6B5
:102BB0008B0E911CB12CA12C01ED20ED722E31E970
:102BC000632E41E8542EF60180810E940B0C482EA2
:102BD000D60111968C910E940B0C429490EF4922E1
:102BE000480EF60182810E940B0C182FD601139615
:102BF0008C910E940B0C912F9295907F980FD7018A
:102C0000AA0DBB1DF501319641103CC09C935F019C
:102C100094E0C90ED11C8C149D04A9F6F701EA0DAD
:102C2000FB1D108260E270E0C7010E941D22009728
:102C3000F9F060E270E001960E941D228C01892B60
:102C4000B9F00F5F1F4FF80101900020E9F73197AD
:102C5000E01BF10B80E0482F50E04E175F0730F487
:102C6000D801A40FB51F9C91903221F5883020F136
:102C700083E0E9E9F1E0ADE2B2E001900D928A95DE
:102C8000E1F764CFEE0DFF1D82E0A80EB11C91307C
:102C900019F47C925082BCCF913519F40C93608268
:102CA000B7CF903420F47C9290589083B1CF0C939E
:102CB000905CFBCF8F5FCFCFB8018DE292E00E9496
:102CC000F9216DE971E0C8010E94E7218C01892B8F
:102CD00009F43CCF8DE292E00E94001CC8010E94E2
:102CE0008E2190932C0280932B02181619060CF05B
:102CF0002DCF0A970CF021CF81EF93E00E940F1C9B
:102D000080EE93E00E94351118CFCF93DF9300D06F
:102D100000D0CDB7DEB70E941C1D69837A838B83F8
:102D20009C838091220290912302A0912402B09171
:102D3000250280569A4FAF4FBF4F29813A814B8170
:102D40005C8182179307A407B507C8F48AE191E074
:102D50000E94461581111AC080912202909123028F
:102D6000A0912402B0912502CC96A11DB11D8093A3
:102D7000220290932302A0932402B09325020F9085
:102D80000F900F900F90DF91CF9108950E941C1D1E
:102D90006093220270932302809324029093250271
:102DA000EECF8091380208952FB7F89480913602C3
:102DB000909137022FBF08952FB7F8948093360271
:102DC000909337022FBF089580913C029091160294
:102DD000911106C0813021F42C9A80931602089537
:102DE00081110FC0809115028F5F809315021092A0
:102DF0001602833330F085B190E1892785B91092AE
:102E0000150208958DE392E008958DE292E0089511
:102E10003998419A3898409A0895209A2898219A8A
:102E20002998229A2A98239A2B983B9A43983C9A5D
:102E30004498529A5A98549A5C980895559A5D9875
:102E4000569A5E980895259A2D98249A2C9808955C
:102E50000E941E17579A5F980E9408170E94231716
:102E60000C940D1786B196B1927080FD06C083E078
:102E7000911181E080938B03089581E0911180E0AE
:102E8000880FF8CF9FB7F89480918B039FBF089568
:102E9000FF920F931F93CF93DF93D82FF92EC62F56
:102EA000613001F506EC11E0F80180818B32A1F46C
:102EB0004DE050E0B8018D2F9F2D0E94EC21892B11
:102EC00059F48DE398E00E940F1C8C2FDF91CF9175
:102ED0001F910F91FF900895025F1F4FF2E00C3099
:102EE0001F0711F783E398E00E940F1CC0E0EDCFAD
:102EF000AF92BF92DF92EF92FF920F931F93CF9307
:102F0000DF938C01EB014CE050E065EC76E00E9431
:102F1000B521892B09F04FC0045F1F4F88EB96E065
:102F20009F938F93DF93CF930E94A022C80FD91F46
:102F300086ECE82E81E0F82E0F900F900F900F9006
:102F4000D12C94EBA92E96E0B92EF70180818B321B
:102F5000C9F4FF92EF92BF92AF92DF93CF930E949A
:102F6000A022C80FD91FD394EEE0EE0EF11C0F90F3
:102F70000F900F900F900F900F90F5E0DF12E5CFBC
:102F8000219702C0D110FCCF82EB96E09F938F93E4
:102F9000DF93CF930E94A0220F900F900F900F907D
:102FA000C801DF91CF911F910F91FF90EF90DF90BB
:102FB000BF90AF9008954DE050E064EA76E0C8011C
:102FC0000E94B521892BA9F4035F1F4F80910E0247
:102FD0001F928F9383E996E09F938F93DF93CF9314
:102FE0000E94A0220F900F900F900F900F900F90C3
:102FF000D7CF4BE050E067E876E0C8010E94B521EA
:10300000892B69F4055F1F4F80910F021F928F93E8
:1030100088E796E09F938F93DF93CF93E1CF4CE0C7
:1030200050E06BE676E0C8010E94B521892B69F477
:10303000045F1F4F809113021F928F938BE596E0E0
:103040009F938F93DF93CF93CBCF10E000E0A8CF77
:103050000F931F93CF93DF9300D0CDB7DEB7082F28
:10306000192F9A8389834DE050E06DE476E0C80122
:103070000E94B521892B19F5F8018585803359F017
:103080008133D9F090E080E00F900F90DF91CF91E5
:103090001F910F91089580E09801225F3F4F3A837E
:1030A0002983F80196859B3369F70E94BC0B0E9427
:1030B000A80B89819A810196E7CF81E0EDCF4BE0A3
:1030C00050E061E476E0C8010E94B521892BA9F4A3
:1030D000F8018385803379F08133A1F681E098018E
:1030E000245F3F4F3A832983F80194859B3351F63F
:1030F00080930F02DCCF80E0F2CF49E050E067E33D
:1031000076E0C8010E94B521892BB9F4F8018185C8
:10311000803389F0813309F0B5CF81E09801265FD3
:103120003F4F3A832983F80192859B3309F0AACF58
:1031300080931302BCCF80E0F1CF48E050E06EE214
:1031400076E0C8010E94B521892B89F4C801089650
:103150009A838983F8018085803311F481E004C06B
:10316000813309F08FCF82E080930C02A0CF48E03A
:1031700050E066E276E0C8010E94B521892B61F437
:10318000C80142969A838983F8018289803359F372
:10319000813309F077CFE2CF4CE050E069E176E08F
:1031A000C8010E94B521892B09F06CCFC8010C968B
:1031B0009A838983F8012485022E000C330B205357
:1031C00031092A30310508F05DCF4AE050E0BE01F8
:1031D0006F5F7F4F0E944620862F6B3F08F052CFD3
:1031E000E981FA8190819B3309F04CCF0E94050C54
:1031F0005ECFCF92DF92FF920F931F93CF93DF9317
:10320000CDB7DEB7C054D1400FB6F894DEBF0FBEC5
:10321000CDBF0E9428228C0144E050E06EE278E0AD
:103220000E94B521892BE1F50E94021761E00E94FE
:103230004817F801349610E081111CC00E94021753
:10324000BC0180E298E0C05CDE4F0FB6F894DEBFB0
:103250000FBECDBFDF91CF911F910F91FF90DF90F7
:10326000CF900C94D610CF010E942818FC01892B16
:1032700031F01F5F80818111F6CF111109C080E00C
:103280000E94710B0E940217BC0187E198E0DBCF1E
:103290000E94A80B0E940217BC018DE198E0D3CFD9
:1032A00044E050E062E178E0C8010E94B521892B3A
:1032B00009F052C00E94021761E00E944817811174
:1032C00006C00E940217BC0184E098E0BCCFF80160
:1032D0003496198210E0CE0101966C018081811133
:1032E0001CC0112359F00E940217BC01CE010196A7
:1032F0000E945D1189EF97E00E940F1CC05CDE4FB9
:103300000FB6F894DEBF0FBECDBFDF91CF911F91F6
:103310000F91FF90DF90CF900895D6010D9000207F
:10332000E9F7BD0161507109CF010E947817FC01D6
:10333000892B09F45FC11F5FD6010D900020E9F7CA
:103340001197AC19BD09A13AB10540F20E940217CC
:10335000BC0184ED97E053C14DE050E066EC77E0AE
:10336000C8010E94B521892B49F50E94021761E02E
:103370000E944817811106C00E940217BC0188EB09
:1033800097E061CF80E00E94020C0E94A80B0E948F
:103390000217BC0183E897E00E94D610C05CDE4FA4
:1033A0000FB6F894DEBF0FBECDBFDF91CF911F9156
:1033B0000F91FF90DF90CF900C944E1347E050E0B8
:1033C0006BE777E0C8010E94B521892B99F40E9430
:1033D000021761E00E944817811106C00E9402177F
:1033E000BC018DE697E02FCF0E940217BC0185E556
:1033F00097E0D2CF45E050E06FE477E0C8010E944B
:10340000B521892B99F40E94021761E00E944817A8
:10341000811106C00E940217BC0181E497E013CF1E
:103420000E940217BC0188E899E00DCF48E050E007
:1034300068E377E0C8010E94B521892B99F40E94C6
:10344000021761E00E944817811106C00E9402170E
:10345000BC018AE297E0F7CE0E940217BC0187EE1A
:1034600098E0F1CE48E050E061E277E0C8010E94C8
:10347000B521892B99F40E94021761E00E94481738
:10348000811106C00E940217BC0183E197E0DBCEE8
:103490000E940217BC0186E498E0D5CE47E050E0D8
:1034A0006BE077E0C8010E94B521892BF9F40E94F6
:1034B000021761E00E944817811106C00E9402179E
:1034C000BC018DEF96E0BFCE0E940217C05CDE4FBC
:1034D0000FB6F894DEBF0FBECDBFDF91CF911F9125
:1034E0000F91FF90DF90CF900C946D084CE050E06E
:1034F00060EF76E0C8010E94B521892B09F0FECE6D
:103500008091C501811149C0045F1F4F1092C6010F
:103510001092D4011092E2011092F0011092FE017B
:103520006801F12CC6010E94C811811144C026EC2B
:1035300031E080E08F114EC025E030E0281B3109DA
:103540009EE0929FA001939F500D1124899FC0017E
:10355000112470E060E08A539E4F0E940B2281E0AC
:103560008093C5010E94A80B0E940217BC018DEE3A
:1035700096E00E94D61080EE96E0C05CDE4F0FB65B
:10358000F894DEBF0FBECDBFDF91CF911F910F9199
:10359000FF90DF90CF900C940F1C0E94021761E007
:1035A0000E944817813009F4AFCF0E940217BC0176
:1035B00082ED96E048CEF394B6E0FB1681F2F60178
:1035C00085858B3309F4B3CF8C3249F6FEE0CF0EFC
:1035D000D11CA8CF9DE0F801D90101900D929A95D8
:1035E000E1F7D9011D961C92025F1F4F8F5F225F8A
:1035F0003F4FA0CF0E940217BC0183EF97E00E94CB
:10360000D6107CCE1F921FB61F9211248F939F93CA
:10361000EF93FF9380919503813019F59091940376
:103620008FEF890F9130D9F480919103909192039B
:1036300080FF43C05B9A809191039091920396958D
:103640008795909392038093910380919303815087
:1036500080939303811102C01092950383E08093BD
:10366000940380919703811120C080919003882357
:1036700031F180918F03815080938F03811115C0A8
:103680001092900310929603E0919903F0E08091DC
:103690008E03E656FC4F8083809199038F5F809361
:1036A0009903803210F010929903FF91EF919F914E
:1036B0008F911F901FBE1F9018955B98BCCF809173
:1036C0009603811110C04A99F0CF81E08093960350
:1036D00010928E0394E090938F0398E090938D0363
:1036E00080938C03E2CF90918F038FEF890F9130FD
:1036F000B9F480918C034A9B05C090918E03982B5E
:1037000090938E03880F80938C0380918D0381505A
:1037100080938D03811103C081E08093900383E047
:1037200080938F03C2CF109295031092960310924C
:1037300097035B9A539A52989FB7F8948FE18093BE
:10374000B30082E08093B0008093B100E0E7F0E046
:103750008081826080831092B2009FBF0895109292
:103760009703089581E080939703089590919803BB
:10377000809199039817E1F3E92FF0E0E656FC4FAA
:1037800080819F5F903218F490939803089510926F
:10379000980308959091990381E02091980329134B
:1037A00001C080E008951092990310929803089543
:1037B0009091950381E0913009F080E00895909117
:1037C00095039130E1F393E0909394039AE0909302
:1037D0009303880F990B92609093920380939103C7
:1037E00081E0809395030895CF93DF93EC01899155
:1037F000811103C0DF91CF9108950E94DF1BF7CFA5
:10380000CF93DF93EC018991811106C08FE991E09C
:10381000DF91CF910C94F41B0E94DF1BF4CFCF9368
:10382000DF93EC01FE0184912196811106C08FE99E
:1038300091E0DF91CF910C94F41B0E94DF1BF2CF3B
:10384000F89410928000E1E8F0E010821092850078
:103850001092840087E490E0909389008093880020
:10386000808188608083808185608083EFE6F0E0DE
:1038700080818260808308951F920F920FB60F920D
:1038800011242F933F934F935F936F937F938F9365
:103890009F93AF93BF93EF93FF938091CA0390914F
:1038A000CB03A091CC03B091CD030A96A11DB11D0D
:1038B0008093CA039093CB03A093CC03B093CD0322
:1038C0008091BB038F5F8093BB030E94321780916E
:1038D000BB03843608F45EC01092BB038091C6031C
:1038E0009091C703A091C803B091C9030196A11D8F
:1038F000B11D8093C6039093C703A093C803B093F0
:10390000C9038091BC039091BD03A091BE03B09107
:10391000BF030196A11DB11D8093BC039093BD030D
:10392000A093BE03B093BF038091C0039091C103E5
:1039300001969093C1038093C0038091BA038F5F77
:103940008093BA0385B190E2892785B90E94320637
:103950008091BA038C33A8F01092BA038091C2030D
:103960009091C303A091C403B091C5030196A11D1A
:10397000B11D8093C2039093C303A093C403B0937B
:10398000C5038091C0039091C1038937910510F060
:103990000E944E13A895FF91EF91BF91AF919F9117
:1039A0008F917F916F915F914F913F912F910F90E8
:1039B0000FBE0F901F901895CF93DF9300D000D0CB
:1039C000CDB7DEB78FB7F8942091CA033091CB03FF
:1039D0004091CC035091CD0329833A834B835C8380
:1039E0008FBF69817A818B819C810F900F900F909E
:1039F0000F90DF91CF910895CF93DF9300D000D047
:103A0000CDB7DEB78FB7F8942091C6033091C703C6
:103A10004091C8035091C90329833A834B835C8347
:103A20008FBF69817A818B819C810F900F900F905D
:103A30000F90DF91CF910895CF93DF9300D000D006
:103A4000CDB7DEB78FB7F8942091C2033091C3038E
:103A50004091C4035091C50329833A834B835C830F
:103A60008FBF69817A818B819C810F900F900F901D
:103A70000F90DF91CF9108958FB7F8941092C10302
:103A80001092C0038FBF0895CF92DF92EF92FF9202
:103A9000CF93DF9300D000D0CDB7DEB77C010E947A
:103AA000DC1CDC01CB018E0D9F1DA11DB11D6C0125
:103AB0007D010E94DC1C69837A838B839C836C1557
:103AC0007D058E059F0558F00F900F900F900F9079
:103AD000DF91CF91FF90EF90DF90CF900895889580
:103AE0000E94061E882329F30E94C60CF9CFCF92AC
:103AF000DF92EF92FF92CF93DF9300D000D0CDB74B
:103B0000DEB7F82E0E94FC1CDC01CB018F0D911D4D
:103B1000A11DB11D6C017D010E94FC1C69837A838B
:103B20008B839C836C157D058E059F0558F00F9047
:103B30000F900F900F90DF91CF91FF90EF90DF905B
:103B4000CF90089588950E94061E882329F30E942D
:103B5000C60CF9CFCF93DF9300D000D0CDB7DEB73E
:103B60008FB7F8942091BC033091BD034091BE0300
:103B70005091BF0329833A834B835C838FBF698154
:103B80007A818B819C810F900F900F900F90DF9125
:103B9000CF9108951092C5008FE28093C40086E013
:103BA0008093C20088E98093C1001092CE031092E6
:103BB000CF0308958F938FB78F939F93EF93FF93C6
:103BC0008091C0009091C600887161F4E091CF03AC
:103BD000F0E0E053FC4F90838091CF038F5F8F77AD
:103BE0008093CF03FF91EF919F918F918FBF8F9122
:103BF0001895E091CE03F0E0E053FC4F8091CE03A6
:103C00008F5F8F778093CE03808108952091CF03BB
:103C10009091CE0381E0291301C080E008956150A6
:103C200008F408952091C00025FFFCCFFC0181918C
:103C30008093C600CF01F3CFFC018191811101C0B7
:103C400008959091C00095FFFCCF8093C600F5CFFA
:103C50009091C00095FFFCCF8093C6000895CF934C
:103C6000DF93EC01FE0184912196811103C0DF9165
:103C7000CF9108950E94281EF5CF1092CF03109285
:103C8000CE030895CF92DF92EF92FF92CF93DF930E
:103C900000D000D00F92CDB7DEB70E94FC1C6A8323
:103CA0007B838C839D836B017C0183E0C80ED11CD8
:103CB000E11CF11C8091C00087FD0CC00F900F909B
:103CC0000F900F900F90DF91CF91FF90EF90DF90CA
:103CD000CF9008950E94FC1C6A837B838C839D8314
:103CE000C616D706E806F90648F38091C600898310
:103CF00089818983DFCFA89589E2809360000E9443
:103D0000CA1D0E94201C0E94931B78940E942817B1
:103D10000E94650683E196E00E940F1C0E946008E5
:103D20000E949C14882321F08AE191E00E944615AC
:103D300081E00E94710B0E943C1D89E096E00E9488
:103D40000F1C0E943C1D0E941F070E9434050E9408
:103D50006A130E94F1120E9485160E94F1110E94BE
:103D600089090E94061E811102C08895EACF0E942F
:103D7000C60CF7CFAA1BBB1B51E107C0AA1FBB1F74
:103D8000A617B70710F0A61BB70B881F991F5A95E7
:103D9000A9F780959095BC01CD010895A1E21A2E56
:103DA000AA1BBB1BFD010DC0AA1FBB1FEE1FFF1FDF
:103DB000A217B307E407F50720F0A21BB30BE40B2F
:103DC000F50B661F771F881F991F1A9469F7609576
:103DD0007095809590959B01AC01BD01CF01089530
:103DE000052E97FB1EF400940E94071F57FD07D075
:103DF0000E94CE1E07FC03D04EF40C94071F509572
:103E00004095309521953F4F4F4F5F4F08959095C6
:103E10008095709561957F4F8F4F9F4F0895A29F1A
:103E2000B001B39FC001A39F700D811D1124911D8E
:103E3000B29F700D811D1124911D08950F931F9342
:103E4000CF93DF939C01029710F422E030E0E091E1
:103E50005004F091510490E080E0B0E0A0E0309791
:103E600091F4009709F445C0821B930B84309105AF
:103E7000B8F58A819B816115710569F1FB01938316
:103E80008283FE0111C0408151810281138142175A
:103E90005307F0F04217530799F4109761F0129608
:103EA0000C93129713961C933296CF01DF91CF910A
:103EB0001F910F9108950093500410935104F4CF73
:103EC000009719F04817590718F4CA01BD01EF010E
:103ED000DF01F801C4CF9093510480935004D1CFF7
:103EE000FE01E80FF91F219331930297998388838C
:103EF000DCCF8091520490915304892B41F480913E
:103F0000060190910701909353048093520480918D
:103F1000040190910501009741F48DB79EB740913F
:103F2000080150910901841B950B40915204509156
:103F300053044817590708F0B8CF841B950B821714
:103F4000930708F4B2CFB9016E5F7F4F86179707CA
:103F500008F4ABCF640F751F709353046093520441
:103F6000FA0121933193A1CFCF93DF939C01009766
:103F7000E9F0FC01329713821282C0915004D09173
:103F80005104DE0190E080E02097A1F480819181CE
:103F9000280F391F80915204909153048217930780
:103FA00009F067C0F0935304E0935204DF91CF917E
:103FB0000895DA01AE17BF0708F041C012964D917F
:103FC0005C911397CD014115510599F7DC011396CA
:103FD000FC93EE9312974D915D91A40FB51FEA17D4
:103FE000FB0781F4208131812E5F3F4F240F351F65
:103FF000DC0111963C932E932281338113963C93DE
:104000002E931297B0E0A0E08A819B810097B1F5D2
:10401000FE0181919191E80FF91F809152049091D6
:1040200053048E179F0711F6109759F510925104FB
:1040300010925004D0935304C0935204B7CFB3836B
:10404000A28340815181240F351FA217B30771F459
:104050004E5F5F4F2D913C911197240F351F318397
:10406000208312962D913C9133832283009709F08F
:10407000ADCFF0935104E093500498CFDE01EC01F2
:10408000C3CF13961C921E921297D4CFA6E0B0E035
:10409000ECE4F0E20C94BD258D839E836B017A01E4
:1040A0006115710529F0ED81FE81DB01ED93FC9333
:1040B000E114F10429F0C7010297839708F0A6C024
:1040C000AD80BE8095012F5F3F4F3E832D83D5018C
:1040D0001C91812F90E00E94AC21892B89F71D3221
:1040E000B1F4ED81FE81108195012E5F3F4F3E833B
:1040F0002D8301E0E114F10409F401C1F0E1EF16B0
:10410000F10409F004C1103369F0E02F1DC01B3227
:1041100039F4AD81BE811C91F5013296FE83ED83A9
:1041200000E0E8CFAD81BE818C918F7D883509F0AC
:1041300072C011961C9111971296BE83AD83E02F29
:10414000E26050E1E52EF12C88248A94982CA82C6A
:104150008FE0B82E81C0E02F10E329E9822E982C41
:10416000A82C29E1B22E78C0E02F10E3EDCFE02F8C
:1041700088248A94982CA82C3FE1B32E6DC0E02FA0
:1041800010E348E0E42EF12CF3CF8FEFB2C0C1145E
:10419000D10449F0882379F12D813E8121503109E4
:1041A000F60131832083002379F029813A814B8104
:1041B0005C8150954095309521953F4F4F4F5F4F13
:1041C00029833A834B835C838F3F69F482E290E0DA
:1041D00090935704809356048FEF9FEFDC018983FF
:1041E0009A83AB83BC8369817A818B819C8126967B
:1041F000E0E10C94D925E1FF06C0ED81FE81329704
:10420000D601ED93FC93002371F3CFCF19821A826C
:104210001B821C82E8CFE114F10409F4B0CFBAE0AC
:10422000EB16F10409F497CFE0E1EE16F10409F47E
:104230009BCF10E3F8E0EF16F10409F498CF6FEF8D
:104240007FEFCB0197010F2C000C440B550B0E9404
:10425000CE1E49015A01E02F80E019821A821B828A
:104260001C8227010F2C000C66087708F0EDF10F77
:10427000FA3060F09FEB910FF9EC9A3130F09FE942
:10428000910F9A3108F083CFF9EAF10FFE151F0460
:104290000CF07DCF8F3F69F129813A814B815C81A0
:1042A00082169306A406B50608F46FCFA301920107
:1042B00069817A818B819C810E94A02569837A83A0
:1042C0008B839C838F2F90E0B0E0A0E029813A811E
:1042D0004B815C81280F391F4A1F5B1F29833A835A
:1042E0004B835C83281739074A075B0708F44DCFD7
:1042F00081E0AD81BE811D91BE83AD83B7CF103308
:1043000009F410CFE02F9AE0E92EF12C26CF9AE0A5
:10431000E916F10409F08ECFE02F1FCFFC018827AA
:104320009927E89421912032E9F3293010F02E30BA
:10433000C8F32B3241F02D3239F4689404C00E9446
:104340007E22820F911D219120532A30C0F31EF44A
:10435000909581959F4F089591110C9496248032E9
:1043600019F089508550C8F70895FB01DC0104C09D
:104370008D910590801921F441505040C8F7881B59
:10438000990B0895FB01DC010D900020E9F71197CE
:1043900005900D920020E1F70895FB0155915523FA
:1043A000A9F0BF01DC014D9145174111E1F759F426
:1043B000CD010590002049F04D9140154111C9F300
:1043C000FB014111EFCF81E090E00197089544E5B2
:1043D00054E00E944C220895FB01DC0104C08D9141
:1043E0000190801921F441505040C8F7881B990B67
:1043F00008956817790768F4FB01DC01E40FF51FE5
:10440000A40FB51F02C002900E9241505040D8F741
:1044100008950C94A424DC0101C06D9341505040D8
:10442000E0F70895FB01DC010D900020E9F71197FA
:1044300001900D920020E1F70895FC01819186170B
:1044400021F08823D9F7992708953197CF0108954E
:10445000DC016C9161546A3108F060526F596D93C0
:10446000C1F70895FB0151915523A9F0BF01DC016B
:104470004D9145174111E1F759F4CD01019000200C
:1044800049F04D9140154111C9F3FB014111EFCFA6
:1044900081E090E001970895FA01A191B081009721
:1044A00019F41097E1F0CD01DC01CD010D90002051
:1044B00011F4C00113C0FB012191222319F0201532
:1044C000D9F7F3CFFB012191201519F41E92119613
:1044D00006C02223C1F70D900020A1F7D001FA01F8
:1044E000A193B0830895BB274A3031F4992322F475
:1044F000BDE2909581959F4F0C9487227AE0979F1B
:10450000902D879F802D910D11240895BB27FB01CD
:104510005527AA27880F991FAA1FA41710F0A41BBC
:1045200083955051B9F7A05DAA3308F0A95DA19316
:10453000009779F7B111B1931192CB010C94B82483
:10454000AEE0B0E0E6EAF2E20C94C9250D891E89DE
:104550008EE08C831A8309838FEF9FE79E838D8380
:10456000AE01475E5F4F6F89788DCE0101960E9444
:10457000C3222F813885020F131FF80110822E9657
:10458000E4E00C94E525AFE0B0E0E9ECF2E20C9455
:10459000BB257C013B018A01DC0117961C921E920F
:1045A000169713968C9181FFBEC19AE0292EFE01C9
:1045B00031964F01D70113969C91F30193FD85919C
:1045C00093FF81913F01882309F444C1853239F476
:1045D00093FD859193FF81913F01853229F4B701C5
:1045E00090E00E94C824E6CFB12C412C512CBFE1B1
:1045F000B51538F08B3209F188F4803201F183323D
:1046000021F157FC3AC020ED280F2A3040F556FE24
:104610001FC0B29C200D1124B22E06C08D3291F025
:10462000803379F7689450F8F30193FD859193FFF7
:1046300081913F018111DBCF20C0689451F86894CB
:1046400052F8F2CF689453F8EFCF689454F8ECCF57
:10465000429C200D1124422E689455F8E5CF8E32ED
:1046600029F456FCF7C0689456F8DECF8C3619F45E
:10467000689457F8D9CF8836B9F2982F9F7D955412
:104680009330C0F0833681F18337A1F1833509F08F
:104690005BC0D801CD90DD908D016B2D70E056FC94
:1046A00002C06FEF7FEFC6010E9499245C016894FD
:1046B00057F80AC00C5F1F4FEFE3E983AA24A394C5
:1046C000B12C6401E89457F853FE29C0342CA1148E
:1046D000B10451F5332009F46DCFB70180E290E0C9
:1046E0000E94C8243A94F6CFD8018C9189830E5F3A
:1046F0001F4FE4CFF801C190D1908F016B2D70E076
:1047000056FC02C06FEF7FEFC6010E94AD245C0132
:10471000D9CFB70180E290E00E94C8244A944A149D
:104720001B0409F0B0F7D2CFF60157FC859157FE74
:1047300081916F01B70190E00E94C82431103A9432
:10474000B1E0AB1AB108C3CF843619F0893609F04D
:1047500071C0F80157FE67C061917191819191918B
:104760008F01E52DEF76DE2E97FF09C0909580959D
:10477000709561957F4F8F4F9F4F6894D7F82AE0CF
:1047800030E0A4010E94F824C82EC818AC2C5D2C7F
:10479000D6FE0CC0E89450F8CB1440F4D4FE05C00B
:1047A000D2FC03C05D2D5E7E552EAB2C54FE93C013
:1047B000FE01EC0DF11D8081803309F085C0652D6F
:1047C000697E562E752D7870372E53FC93C050FE9F
:1047D0008DC0BC2CA41410F4B40CBA1854FE90C0B4
:1047E000B70180E390E00E94C82452FE07C088E72A
:1047F00051FC88E590E0B7010E94C824CB1408F46E
:104800008BC0CA94D12C8FEFC81AD80AC80CD91CF7
:10481000D6018E916D01B70190E00E94C8248C14DE
:104820009D04B1F757CF61917191072E000C880B51
:10483000990B96CFD52CE894D4F82AE0853729F146
:10484000F52DF97FDF2E8037A1F058F48835A1F0DF
:104850008F36D1F0F701868197812F96E2E10C9493
:10486000D7258837B9F7D4FE02C06894D2F820E182
:104870000CC06894D4F8F7CF54FE03C02F2F2660E5
:10488000D22E20E132E002C028E030E0F801D7FE6D
:1048900015C041915191619171914C875D876E87EF
:1048A0007F878F01A4016C857D858E859F850E9401
:1048B000F824C82EC818E894D7F868CF8191919150
:1048C000AC0170E060E0E9CF52FC02C0A3947ACF63
:1048D000A394A39477CF852D867809F473CFF6CF70
:1048E000B70180E290E00E94C824A394A414C0F30E
:1048F000312C74CF342C3A18A41408F46FCFF8CFAD
:10490000852D867809F47ACF8BE251FE80E257FC40
:104910008DE2B70190E070CFB70180E390E00E9494
:10492000C824BA946BCF8FEF9FEF97CF9927882732
:104930000895FC010590615070400110D8F78095F2
:1049400090958E0F9F1F0895FB01DC0102C001901E
:104950000D9241505040D8F70895FC0161507040CD
:1049600001900110D8F7809590958E0F9F1F0895A4
:10497000DC01FC01672F71917723E1F7329704C0C6
:104980007C916D9370836291AE17BF07C8F3089551
:104990000F931F93CF93DF93182F092FEB018B8178
:1049A00081FD09C01FEF0FEF812F902FDF91CF9175
:1049B0001F910F91089582FF14C02E813F818C8139
:1049C0009D81281739073CF4E881F981CF010196D0
:1049D0009983888310838E819F8101969F838E8324
:1049E000E3CFE885F985812F0995892BA1F3DACFEB
:1049F000FA01AA27283051F1203181F1E8946F9310
:104A00006E7F6E5F7F4F8F4F9F4FAF4FB1E03ED0B5
:104A1000B4E03CD0670F781F891F9A1FA11D680F53
:104A2000791F8A1F911DA11D6A0F711D811D911D86
:104A3000A11D20D009F468943F912AE0269F1124FB
:104A40003019305D3193DEF6CF010895462F47705F
:104A5000405D4193B3E00FD0C9F7F6CF462F4F70BA
:104A6000405D4A3318F0495D31FD4052419302D018
:104A7000A9F7EACFB4E0A6959795879577956795BE
:104A8000BA95C9F700976105710508959B01AC01BE
:104A90000A2E06945795479537952795BA95C9F7E5
:104AA000620F731F841F951FA01D0895DC01CB01A9
:104AB000FC01F999FECF06C0F2BDE1BDF89A31962E
:104AC00000B40D9241505040B8F70895DC01A40F96
:104AD000B51F4150504048F0CB01840F951F2E91D7
:104AE0000E94772541505040D0F70895262FF9991C
:104AF000FECF92BD81BDF89A019700B4021639F03D
:104B00001FBA20BD0FB6F894FA9AF99A0FBE08950D
:104B1000DC01CB0103C02D910E94932541505040F0
:104B2000D0F70895262FF999FECF1FBA92BD81BD07
:104B300020BD0FB6F894FA9AF99A0FBE019608951F
:104B4000DB018F939F930E94B025BF91AF91A29FED
:104B5000800D911DA39F900DB29F900D112408957B
:104B60000E940F1FA59F900DB49F900DA49F800DD4
:104B7000911D112408952F923F924F925F926F9250
:104B80007F928F929F92AF92BF92CF92DF92EF92DD
:104B9000FF920F931F93CF93DF93CDB7DEB7CA1B5E
:104BA000DB0B0FB6F894DEBF0FBECDBF09942A8889
:104BB000398848885F846E847D848C849B84AA8431
:104BC000B984C884DF80EE80FD800C811B81AA81BE
:104BD000B981CE0FD11D0FB6F894DEBF0FBECDBF89
:084BE000ED010895F894FFCFE8
:104BE800010103010000580420000203050607081C
:104BF8000004616C6C2D6E6F74002A313031230013
:104C0800416C6C20676F6F642C2000667265653D8F
:104C180000416C6C204F6B2C20002B33383037311F
:104C2800333331383039300063682D6F6E00757456
:104C38002D6F6E00722D73656E6400656C2D727336
:104C480074002B4353513A004F4B002B434D4753AD
:104C58003A002B434D474C3A006D656E75002B4367
:104C68004D53533A00757373642073656E64206FF7
:104C78006B002B435553443A00657272002E000DA9
:024C88000A0020
:00000001FF
