:100000000C9415050C9432050C9432050C943205B1
:100010000C9432050C9432050C9432050C942C2B64
:100020000C9432050C9432050C9432050C94A32DDB
:100030000C9432050C9432050C9432050C94320564
:100040000C9432050C9432050C94F42F0C94320568
:100050000C9432050C94F00E0C9432050C9432057D
:100060000C9432050C943205454E45524759202BCD
:100070002B2B0D0A00454E45524759202B2B2B00A8
:10008000454E455247592046524F4D2055544B49F5
:100090004E410D0A00454E455247592046524F4D9C
:1000A0002055544B494E4100454E45524759204634
:1000B000524F4D2043484150454B410D0A00454E9B
:1000C000455247592046524F4D2043484150454BD9
:1000D00041004E4F545F454E455247590D0A004569
:1000E0004E45524759202B2B2B0D0A00454E4552A9
:1000F0004759202B2B2B00454E455247592046523D
:100100004F4D2043484150454B410D0A00454E4557
:100110005247592046524F4D2043484150454B418C
:1001200000454E455247592046524F4D2055544B9D
:10013000494E410D0A00454E455247592046524FFF
:100140004D2055544B494E41004E4F545F454E454E
:100150005247590D0A00706F776572202B2B2B2E9A
:100160000045787465726E616C20706F77657220DF
:100170006973206F6E2E0045787465726E616C2015
:10018000706F776572206973206F6E2E00706F77C5
:100190006572202D2D2D0045787465726E616C207E
:1001A000706F776572206973206F66662E004578E0
:1001B0007465726E616C20706F7765722069732050
:1001C0006F66662E00636865636B20626174746598
:1001D00072790042617474657279204C4F57212105
:1001E00021006C6F772062617474657279004465D8
:1001F000706F7369743D2573205255422C20005452
:10020000696D653D25756425756825756D25757362
:100210002C200054656D70657261747572653D25A2
:1002200064432C200047534D3D256425252C200098
:10023000426174746572793D256425252C20007215
:1002400073745F6D63753D256C752E2000656E655A
:100250007267792066726F6D2043686170656B61AB
:100260002E00656E657267792066726F6D20557419
:100270006B696E612E005761726E696E6721204551
:100280006E657267792066726F6D20436861706574
:100290006B612E005761726E696E672120456E6535
:1002A0007267792066726F6D2055746B696E612E6E
:1002B00000416C61726D21204E6F7420656E657215
:1002C0006779212121004465703D25732C2000743D
:1002D000696D653D25756425756825756D25757392
:1002E0002C200074656D703D2564432C20007273D2
:1002F000745F6D63753D256C752C2000733D25641E
:1003000025252C2000655F706F7765723D25752E61
:100310002000626174746572793D256425252E2064
:1003200000656E657267792066726F6D2043686143
:1003300070656B612E00656E657267792066726FFD
:100340006D2055746B696E612E00205761726E6965
:100350006E672120456E657267792066726F6D2029
:1003600043686170656B612E00205761726E696E23
:10037000672120456E657267792066726F6D205522
:10038000746B696E612E0020416C61726D21204E8C
:100390006F7420656E6572677921212100416C615F
:1003A000726D212054454D504552415455524521BE
:1003B000212100416C61726D212054454D50455200
:1003C0004154555245203E20373000656570726FAC
:1003D0006D5F726561645F636F6E6669670D0A00C9
:1003E00041542B434C43430D0A002B434C43433AA7
:1003F000004552524F52002B44544D463A0041544E
:100400002B435245433D350D0A0041542B43524581
:10041000433D342C22433A5C557365725C002E6177
:100420006D72222C302C3130302C000D0A004154DA
:100430004425733B0D0A0043414C4C5F4F55545FBC
:100440004449414C202E2E2E200043616C6C2065C7
:100450006E646564004E6F20616E73776572210073
:100460004154480D0A0077616974207374722074D6
:10047000696D6520656E64004552524F5200636D90
:10048000642074696D6520656E64004552524F5258
:100490000041542B435245473F0D0A002B43524520
:1004A000473A006E6F74207265672067736D004174
:1004B000542B4353510D0041542B434D47533D2280
:1004C0002573220D0A0041542B434D47573D2225E9
:1004D00073220D0A0041542B434D47533D2225738F
:1004E000220D0A002B434D54493A002B434C4950EE
:1004F0003A002B44544D463A0041542B434D474C4F
:100500003D2253544F20554E53454E54220D0A0060
:1005100041542B434D53533D25642C222573220D0A
:100520000A0041542B434D47443D25640D0A0064A5
:10053000656C5F736D735F696E640041542B434D4E
:10054000474C3D2252454320554E52454144220DD1
:100550000A0041542B434D47443D25640D0A004198
:10056000542B434D4744413D2244454C20414C4C83
:10057000220D0A004154410D0A0041540D0A004168
:100580005445300D0A0041542B434D47463D310D33
:100590000A0041542B434E4D493D322C312C302C16
:1005A000312C300D0A0041542B434C49503D310D44
:1005B0000A0041542B43504D533D22534D222C22CF
:1005C000534D222C22534D220D0A0041542B4444FA
:1005D00045543D310D0A0041542B435553443D31A0
:1005E0002C2200220D0A004465706F736974203C50
:1005F00020313020727562004465706F7369742019
:100600003C20313020525542007374617274006591
:100610006E642073657475700068656C70736574C2
:100620003B68656C706765743B7265706F72743B94
:1006300061646D696E70686F6E65733B7265626F41
:100640006F743B726573657464656661756C743B49
:10065000000000000000000000000000000000009A
:10066000000000000000000000000000000000008A
:10067000000000000000000000000000000000007A
:10068000000000000000000000000000000000006A
:10069000000000000000000000000000000000005A
:1006A000000000000000000000000000000000004A
:1006B000000000000000000000006765743A6164FB
:1006C0006D696E70686F6E65733B616363657074AE
:1006D0005F63616C6C733B6163636570745F736DC2
:1006E000733B7265706F72745F743B0000000000B2
:1006F00000000000000000000000000000000000FA
:1007000000000000000000000000000000000000E9
:1007100000000000000000000000000000000000D9
:1007200000000000000000000000000000000000C9
:1007300000000000000000000000000000000000B9
:1007400000000000000000000000000000000000A9
:1007500000000000000000000000007365743A61B2
:1007600063636570745F63616C6C733D3B6163636D
:100770006570745F736D733D3B7265706F72745F0B
:10078000743D3B75746B696E613D3B636861706578
:100790006B613D3B70617573655F72656C61793D3E
:1007A0003B0000000000000000000000000000000E
:1007B0000000000000000000000000000000000039
:1007C0000000000000000000000000000000000029
:1007D0000000000000000000000000000000000019
:1007E0000000000000000000000000000000000009
:1007F00000000000000000000000000070686F6E44
:1008000065206F6B006E6F742070686F6E6500738B
:1008100065743A004163636573732064656E69654E
:1008200064006F6B006572726F72006765743A00E6
:100830004163636573732064656E69656400736505
:100840006E645F736D730D0A006572726F72007271
:100850006573756C74696E6720534D5320746578A9
:100860007420697320746F6F206C6F6E67007265FF
:1008700073657464656661756C743B0041636365A0
:1008800073732064656E69656400446576696365A9
:100890002072657365742064656661756C742C20C4
:1008A00073656E642061646D696E70686F6E6573E8
:1008B0003D4E554D4245525F50484F4E4553007294
:1008C00065626F6F743B0041636365737320646599
:1008D0006E69656400526573657420636F6D6D6148
:1008E0006E642061636365707465642E0068656C76
:1008F000703B004163636573732064656E69656472
:100900000068656C706765743B0041636365737371
:100910002064656E6965640068656C707365743B1E
:10092000004163636573732064656E69656400727A
:1009300065706F72743B0041636365737320646517
:100940006E6965640061646D696E70686F6E657371
:100950003D006F6B007365742061646D696E206F7C
:100960006B004163636573732064656E6965640041
:1009700061646D696E70686F6E65733B0061646D74
:10098000696E70686F6E65733D0025732C003B00C7
:100990006163636570745F63616C6C733B0061637A
:1009A000636570745F63616C6C733D25643B0061CB
:1009B00063636570745F736D733B0061636365703F
:1009C000745F736D733D25643B0070617573655F83
:1009D00072656C61793B0070617573655F72656CFF
:1009E00061793D25753B006163636570745F636188
:1009F0006C6C733D006163636570745F736D733D10
:100A0000007265706F72745F743D00636861706539
:100A10006B613D0075746B696E613D00706175734B
:100A2000655F72656C61793D000011241FBECFEFD8
:100A3000D8E0DEBFCDBF11E0A0E0B1E0E8E6F1E72D
:100A400002C005900D92A83AB107D9F724E0A8EAB0
:100A5000B1E001C01D92AE35B207E1F70E94D2228B
:100A60000C949A380C940000CF93DF93CDB7DEB787
:100A70002A970FB6F894DEBF0FBECDBF0E94A42404
:100A800089830E942A118A838091AC0199819817E9
:100A900001F10E94862E6B837C838D839E830E944E
:100AA000DC11882F90E0A0E0B0E02B813C814D81EB
:100AB0005E81820F931FA41FB51F8093AD01909399
:100AC000AE01A093AF01B093B00189818093AC01D6
:100AD0001DC10E94862E6F83788789879A878091AF
:100AE000AD019091AE01A091AF01B091B0012F8105
:100AF000388549855A85281739074A075B0708F45E
:100B000002C18091B1019A81981731F4809100015E
:100B10009981981709F4F9C08A81823009F07BC065
:100B20008A818093B10189818330D1F48BE290E096
:100B3000FC0120818BE290E02062FC01208383E0B5
:100B40008093000188E690E00E943D2D0E940711ED
:100B5000813009F0DBC085E790E00E949F19D6C084
:100B600089818130D1F48BE290E0FC0120818BE21D
:100B700090E02F7DFC01208381E08093000180E8DC
:100B800090E00E943D2D0E940711813009F0BEC007
:100B900085E990E00E949F19B9C089818230D1F423
:100BA0008BE290E0FC0120818BE290E02062FC016E
:100BB000208382E08093000188EA90E00E943D2D2E
:100BC0000E940711813009F0A1C08EEB90E00E94D5
:100BD0009F199CC08981882309F098C082ED90E01C
:100BE0000E943D2D81E00E9416110E947A108BE236
:100BF00090E0FC0120818BE290E02F7DFC012083BE
:100C00000E94E410813021F48CE091E00E94F01900
:100C1000109200017BC08A81813009F077C08A81FF
:100C20008093B10189818330D1F48BE290E0FC01A3
:100C300020818BE290E02F7DFC01208383E0809374
:100C400000018FED90E00E943D2D0E940711813040
:100C500009F05CC08CEE90E00E949F1957C089811A
:100C60008230D1F48BE290E0FC0120818BE290E0B5
:100C70002062FC01208382E08093000187EF90E0F6
:100C80000E943D2D0E940711813009F03FC08DE088
:100C900091E00E949F193AC089818130C9F48BE2AA
:100CA00090E0FC0120818BE290E02F7DFC0120830D
:100CB00081E08093000181E291E00E943D2D0E943D
:100CC0000711813019F586E391E00E949F191EC03B
:100CD00089818823D9F489E491E00E943D2D8BE23B
:100CE00090E0FC0120818BE290E02F7DFC012083CD
:100CF0000E94E410813021F48CE091E00E94F01910
:100D00001092000103C0000001C000002A960FB637
:100D1000F894DEBF0FBECDBFDF91CF910895CF9382
:100D2000DF930F92CDB7DEB70E94A4248983898117
:100D3000882311F081E001C080E00F90DF91CF9116
:100D40000895CF93DF93CDB7DEB70E948F06882337
:100D500049F01092A8011092A9011092AA011092D4
:100D6000AB0113C08091A8019091A901A091AA01A3
:100D7000B091AB010196A11DB11D8093A801909384
:100D8000A901A093AA01B093AB010000DF91CF911C
:100D90000895CF92DF92EF92FF92CF93DF93CDB77A
:100DA000DEB7A5970FB6F894DEBF0FBECDBF80911A
:100DB000A8019091A901A091AA01B091AB01892B42
:100DC0008A2B8B2B09F07AC00E94AD10882309F47E
:100DD00056C18091B201882339F481E08093B20139
:100DE00086E591E00E943D2D809101018823C1F4A8
:100DF0000E94862E6E837F83888799872E813F810C
:100E0000488559852093B3013093B4014093B501CF
:100E10005093B60181E08093010181E08093B70196
:100E20008091B701813009F02AC1809101018130A0
:100E300009F025C10E94AD10482F50E060E070E03D
:100E40008CE390E0DC019A01AB010E94BE316A871D
:100E50007B878C879D878091B3019091B401A0918D
:100E6000B501B091B601CA84DB84EC84FD84C80E60
:100E7000D91EEA1EFB1E0E94862E6E877F87888BF6
:100E8000998B8E859F85A889B989C816D906EA06E7
:100E9000FB0608F0F4C01092B70181E080930201D4
:100EA00081E691E00E943D2D0E940711813009F0FA
:100EB000E6C087E791E00E949F19E1C00E948A1076
:100EC000882309F4DDC08FE590E0DC018C918983F3
:100ED000F8948091A8019091A901A091AA01B091E4
:100EE000AB018A839B83AC83BD838FE590E029812E
:100EF000FC0120838A819B81AC81BD818093B801F4
:100F00009093B901A093BA01B093BB010E94862EC1
:100F10006A8B7B8B8C8B9D8B2A893B894C895D8965
:100F20002093B3013093B4014093B5015093B601BF
:100F30008091B201813031F41092B2018DE891E0DC
:100F40000E943D2D80910201813029F50E948A1076
:100F5000482F50E060E070E08CE390E0DC019A0103
:100F6000AB010E94BE316E8B7F8B888F998F8091F1
:100F7000B8019091B901A091BA01B091BB012E893D
:100F80003F89488D598D281739074A075B0718F4A0
:100F900081E08093BC018091BC01813039F51092D1
:100FA000BC01109201011092020181E08093BD0109
:100FB0000E94862E6A8F7B8F8C8F9D8F8A8D9B8D52
:100FC000AC8DBD8D8093BE019093BF01A093C001F5
:100FD000B093C10187E991E00E943D2D0E94071165
:100FE000813021F48EEA91E00E949F198091BD0129
:100FF000813009F045C00E94862E6E8F7F8F88A3B6
:1010000099A38091BE019091BF01A091C001B091C0
:10101000C10188589F4FAF4FBF4F2E8D3F8D48A1C4
:1010200059A182179307A407B50750F585EC91E005
:101030000E943D2D0E94862E6AA37BA38CA39DA3B4
:101040008AA19BA1ACA1BDA18093BE019093BF01D9
:10105000A093C001B093C1010E944D08893180F472
:101060001092BD010E940711813021F483ED91E0BF
:101070000E949F1982EE91E00E943D2D01C0000068
:10108000A5960FB6F894DEBF0FBECDBFDF91CF910E
:10109000FF90EF90DF90CF9008950F93CF93DF9361
:1010A00000D0CDB7DEB785E00E94F60D9A83898324
:1010B00089819A81813692404CF481E00E94161118
:1010C0000E947A100E94711E80E013C089819A816B
:1010D0008C3B924024F08CEB92E09A838983898147
:1010E0009A8104E620E04CEB52E062E672E00E9456
:1010F00081170F900F90DF91CF910F910895CF93AB
:10110000DF93CDB7DEB705C00E94F22E85E00E94C6
:10111000552F85E00E94F60D81369240ACF3000019
:101120000000DF91CF910895CF93DF9300D000D0DE
:10113000CDB7DEB78091A8019091A901A091AA0135
:10114000B091AB0189839A83AB83BC8369817A8137
:101150008B819C810F900F900F900F90DF91CF911A
:1011600008950F931F93CF93DF93CDB7DEB7C15D83
:10117000D1090FB6F894DEBF0FBECDBF9E0120553A
:101180003F4FD9018D939C930E949E2FCE53DF4FEA
:10119000688379838A839B83C25CD040CE53DF4FC0
:1011A000288139814A815B81C25CD0402B833C839A
:1011B0004D835E838B819C81AD81BE81CA53DF4F9D
:1011C00088839983AA83BB83C65CD04000E811E57D
:1011D00021E030E0CA53DF4F688179818A819B81A9
:1011E000C65CD040A90198010E947731DA01C9019B
:1011F00098878F838F819885CC01A0E0B0E09C0117
:10120000AD0160E871E581E090E00E945331CE5479
:10121000DF4F688379838A839B83C25BD0408B8155
:101220009C81AD81BE81CE54DF4F288139814A81B6
:101230005B81C25BD040821B930BA40BB50B8B83ED
:101240009C83AD83BE838B819C81AD81BE81C6535F
:10125000DF4F88839983AA83BB83CA5CD04000E1B7
:101260001EE020E030E0C653DF4F688179818A813B
:101270009B81CA5CD040A90198010E947731DA01B4
:10128000C9019A87898789859A85AC0160E070E0F9
:1012900080E19EE0DC019A01AB010E94BE31CA549C
:1012A000DF4F688379838A839B83C65BD0408B81C1
:1012B0009C81AD81BE81CA54DF4F288139814A812A
:1012C0005B81C65BD040821B930BA40BB50B8B8359
:1012D0009C83AD83BE838B819C81AD81BE81C253D3
:1012E000DF4F88839983AA83BB83CE5CD0400CE315
:1012F00010E020E030E0C253DF4F688179818A81BD
:101300009B81CE5CD040A90198010E947731DA011F
:10131000C9019C878B872B813C814B855C856CE365
:10132000649FC001659F900D1124D901A81BB90BC2
:10133000CD019E878D87CE0140969A8389830E9436
:10134000A4248F8784E191E00E94751F0E9492225D
:101350009C018EEE91E0432F4F932F93292F2F93D3
:101360008F938A818F9389818F930E946C350F9020
:101370000F900F900F900F900F909C0189819A8190
:10138000820F931F9A8389838FEF91E02E852F938D
:101390002D852F932C852F932B852F932A852F9383
:1013A00029852F9328852F932F812F93292F2F93D2
:1013B0008F938A818F9389818F930E946C35EDB7CB
:1013C000FEB73C960FB6F894DEBF0FBECDBF9C01B2
:1013D00089819A81820F931F9A83898388E00E9472
:1013E000F60D9C0183E192E0432F4F932F93292F19
:1013F0002F938F938A818F9389818F930E946C356D
:101400000F900F900F900F900F900F909C0189817B
:101410009A81820F931F9A8389830E94C517282F70
:1014200030E085E292E0432F4F932F93292F2F93A3
:101430008F938A818F9389818F930E946C350F904F
:101440000F900F900F900F900F909C0189819A81BF
:10145000820F931F9A8389830E949408C654DF4F9A
:10146000688379838A839B83CA5BD040C654DF4FED
:10147000288139814A815B81CA5BD040232B242B90
:10148000252BF9F00E944D08282F30E080E392E0F0
:10149000432F4F932F93292F2F938F938A818F93CD
:1014A00089818F930E946C350F900F900F900F9051
:1014B0000F900F909C0189819A81820F931F9A83CC
:1014C00089830E945811C254DF4F688379838A83CD
:1014D0009B83CE5BD0408FE392E0CF53DF4F2881D8
:1014E000C15CD0402F93C054DF4F2881C05CD040F6
:1014F0002F93C154DF4F2881CF5BD0402F93C2542C
:10150000DF4F2881CE5BD0402F93292F2F938F93CD
:101510008A818F9389818F930E946C354DB75EB716
:10152000485F5F4F0FB6F894DEBF0FBECDBF9C0182
:1015300089819A81820F931F9A8389838F85833053
:1015400099F589819A819C01D9010D900020E9F7D4
:10155000CD010197821B930B29813A81820F931F42
:101560002BE0EAE1F1E0DC0101900D922A95E1F730
:101570000E942A11823051F42DE432E089819A814F
:10158000B9010E947C349A83898334C00E942A1155
:10159000813081F522E632E089819A81B9010E9489
:1015A0007C349A83898326C08F85823051F426E764
:1015B00032E089819A81B9010E947C349A838983BF
:1015C00019C08F85813051F424E932E089819A81F4
:1015D000B9010E947C349A8389830CC08F8588234B
:1015E00049F421EB32E089819A81B9010E947C346F
:1015F0009A838983CE0180559F4FFC0120813181E0
:10160000CE014096B9010E9435180000CF52DF4F3D
:101610000FB6F894DEBF0FBECDBFDF91CF911F9103
:101620000F9108950F931F93CF93DF93CDB7DEB73C
:10163000C459D1090FB6F894DEBF0FBECDBF0E94CA
:101640009E2FCB57DF4F688379838A839B83C5584E
:10165000D040CB57DF4F288139814A815B81C55803
:10166000D0402B833C834D835E838B819C81AD81F5
:10167000BE81C757DF4F88839983AA83BB83C9582C
:10168000D04000E811E521E030E0C757DF4F688126
:1016900079818A819B81C958D040A90198010E9413
:1016A0007731DA01C90198878F838F819885CC01C2
:1016B000A0E0B0E09C01AD0160E871E581E090E060
:1016C0000E945331E9966CAF7DAF8EAF9FAFE99723
:1016D0008B819C81AD81BE81E9962CAD3DAD4EAD37
:1016E0005FADE997821B930BA40BB50B8B839C8397
:1016F000AD83BE838B819C81AD81BE81C357DF4F9B
:1017000088839983AA83BB83CD58D04000E11EE033
:1017100020E030E0C357DF4F688179818A819B8167
:10172000CD58D040A90198010E947731DA01C90152
:101730009A87898789859A85AC0160E070E080E1AD
:101740009EE0DC019A01AB010E94BE31ED966CAFC8
:101750007DAF8EAF9FAFED978B819C81AD81BE81B8
:10176000ED962CAD3DAD4EAD5FADED97821B930B6D
:10177000A40BB50B8B839C83AD83BE838B819C8133
:10178000AD81BE81CF56DF4F88839983AA83BB8307
:10179000C159D0400CE310E020E030E0CF56DF4FDD
:1017A000688179818A819B81C159D040A9019801C2
:1017B0000E947731DA01C9019C878B872B813C819C
:1017C0004B855C856CE3649FC001659F900D11247F
:1017D000D901A81BB90BCD019E878D87CE014196FB
:1017E0009A8389830E94A4248F870E9492229C015D
:1017F00086EC92E0432F4F932F93292F2F938F93B3
:101800008A818F9389818F930E946C350F900F90FE
:101810000F900F900F900F909C0189819A81820FF9
:10182000931F9A8389838FEC92E02E852F932D85C9
:101830002F932C852F932B852F932A852F932985E2
:101840002F9328852F932F812F93292F2F938F93B9
:101850008A818F9389818F930E946C35EDB7FEB793
:101860003C960FB6F894DEBF0FBECDBF9C018981B8
:101870009A81820F931F9A83898388E00E94F60DD4
:101880009C0183EE92E0432F4F932F93292F2F93A8
:101890008F938A818F9389818F930E946C350F90EB
:1018A0000F900F900F900F900F909C0189819A815B
:1018B000820F931F9A8389830E945811C358DF4F68
:1018C000688379838A839B83CD57D0408EEE92E0E4
:1018D000C058DF4F2881C058D0402F93C158DF4FE8
:1018E0002881CF57D0402F93EF962FADEF972F93AE
:1018F000EE962FADEE972F93292F2F938F938A81FA
:101900008F9389818F930E946C352DB73EB7285FE6
:101910003F4F0FB6F894DEBF0FBECDBF9C0189814B
:101920009A81820F931F9A8389830E94C517282F5B
:1019300030E08CEF92E0432F4F932F93292F2F937A
:101940008F938A818F9389818F930E946C350F903A
:101950000F900F900F900F900F909C0189819A81AA
:10196000820F931F9A8389830E949408CF57DF4F79
:10197000688379838A839B83C158D040CF57DF4FD8
:101980003881C158D040388B88898823E1F485E0BC
:1019900093E01F9221E02F93292F2F938F938A8119
:1019A0008F9389818F930E946C350F900F900F90C9
:1019B0000F900F900F909C0189819A81820F931F45
:1019C0009A8389831FC00E944D08282F30E082E14E
:1019D00093E0432F4F932F93292F2F938F938A8137
:1019E0008F9389818F930E946C350F900F900F9089
:1019F0000F900F900F909C0189819A81820F931F05
:101A00009A8389838F85833099F589819A819C0196
:101A1000D9010D900020E9F7CD010197821B930BAE
:101A200029813A81820F931F29E0E5E2F1E0DC0190
:101A300001900D922A95E1F70E942A11823051F40B
:101A400021E233E089819A81B9010E947C349A8332
:101A5000898334C00E942A11813081F526E333E066
:101A600089819A81B9010E947C349A83898326C036
:101A70008F85823051F42AE433E089819A81B9015B
:101A80000E947C349A83898319C08F85813051F4F8
:101A900029E633E089819A81B9010E947C349A83D6
:101AA00089830CC08F85882349F427E833E0898136
:101AB0009A81B9010E947C349A838983CE01419630
:101AC0000E941A2D0E941F0F0000CC56DF4F0FB648
:101AD000F894DEBF0FBECDBFDF91CF911F910F9164
:101AE0000895CF93DF93CDB7DEB78CE790E0FC018C
:101AF00020818CE790E0206CFC0120838AE790E055
:101B0000FC0120818AE790E02660FC0120838AE7BF
:101B100090E0FC0120818AE790E02E7FFC01208389
:101B20000000DF91CF910895CF93DF93CDB7DEB75B
:101B300028970FB6F894DEBF0FBECDBF8091C201CB
:101B4000813009F447C00E94A511882309F444C0DC
:101B50000E94862E69837A838B839C838091C30144
:101B60009091C401A091C501B091C601CC96A11D70
:101B7000B11D29813A814B815C8182179307A407AB
:101B8000B50758F50E94862E6D837E838F839887D4
:101B90008D819E81AF81B8858093C3019093C401EC
:101BA000A093C501B093C60188E00E94F60D87346A
:101BB00091059CF081E08093C2018DE993E00E9441
:101BC0003D2D0E940711813041F483EB93E00E9488
:101BD0009F1903C0000001C0000028960FB6F894BA
:101BE000DEBF0FBECDBFDF91CF9108950F931F933E
:101BF000CF93DF93CDB7DEB761970FB6F894DEBF12
:101C00000FBECDBF898718861F821B821C821D8252
:101C10001E828CE790E0DC012C918CE790E0207F25
:101C2000FC0120838985883051F48CE790E0DC0149
:101C30002C918CE790E02860FC0120830CC0898502
:101C4000853049F48CE790E0DC012C918CE790E042
:101C50002560FC0120838AE790E0DC012C918AE773
:101C600090E02068FC0120838AE790E0DC012C9161
:101C70008AE790E02860FC01208383E590E0DC01A6
:101C80002C9183E590E02260FC01208384E190E0C8
:101C90000E940B2F8AE790E0DC012C918AE790E00C
:101CA0002064FC01208300008AE790E0DC018C9135
:101CB000882F90E080749927892BB1F782E390E018
:101CC0009A8389833CC083E590E0FC01208183E511
:101CD00090E02160DC012C9300008AE790E0FC0199
:101CE0008081882F90E080749927892BB1F783E554
:101CF00090E0DC012C9183E590E02E7FFC012083B5
:101D0000F89488E790E0DC018D919C9198878F830F
:101D100078948F819885CC01A0E0B0E04B815C8104
:101D20006D817E81840F951FA61FB71F8B839C83B7
:101D3000AD83BE8389819A8101979A838983898142
:101D40009A81892B09F0BFCF8AE790E0FC012081BE
:101D50008AE790E02F77DC012C9389858830C9F4DD
:101D60008B819C81AD81BE818A879B87AC87BD8733
:101D700002E310E020E030E06A857B858C859D855C
:101D8000A90198010E949931DA01C9018E5391404D
:101D90001CC089858530B9F48B819C81AD81BE8161
:101DA0008E879F87A88BB98B02E310E020E030E09C
:101DB0006E857F8588899989A90198010E9499314A
:101DC000DA01C90102C080E090E061960FB6F89494
:101DD000DEBF0FBECDBFDF91CF911F910F91089550
:101DE0001F920F920FB60F921124CF93DF93CDB7AE
:101DF000DEB70000DF91CF910F900FBE0F901F90C4
:101E00001895CF93DF9300D0CDB7DEB79E012F5F3B
:101E10003F4F8091580490915904892B29F080916B
:101E200058049091590402C08EE594E0A901481B22
:101E3000590BCA010F900F90DF91CF910895CF9366
:101E4000DF93CDB7DEB72A970FB6F894DEBF0FBE8B
:101E5000CDBF0E94010F9C014AE050E0CE010196E7
:101E6000BC01C9010E9434358EE291E00E94FA2C37
:101E7000CE0101960E941A2D00002A960FB6F89402
:101E8000DEBF0FBECDBFDF91CF9108959C018FB70C
:101E9000F894F999FECF32BD21BD60BD94E09FBB9F
:101EA00092E09FBB8FBF0895CF93DF9300D0CDB753
:101EB000DEB79A83898300008FE390E0FC01808184
:101EC000882F90E082709927892BB1F781E490E008
:101ED00029813A81FC01318320838FE390E0FC016A
:101EE00020818FE390E02160FC01208380E490E07A
:101EF000FC0180810F900F90DF91CF910895CF93D7
:101F0000DF9300D000D000D0CDB7DEB79A838983AD
:101F10007C836B835E834D8314C089819A819C018D
:101F20002F5F3F4F3A832983FC018081482F8D81A9
:101F30009E819C012F5F3F4F3E832D83642F0E9423
:101F4000460F8B819C819C01215031093C832B835E
:101F5000892B19F70000000026960FB6F894DEBF13
:101F60000FBECDBFDF91CF910895CF93DF9300D007
:101F700000D000D0CDB7DEB79A8389837C836B8392
:101F80005E834D8314C08D819E819C012F5F3F4FE6
:101F90003E832D830E94540F482F89819A819C0192
:101FA0002F5F3F4F3A832983242FFC0120838B81AD
:101FB0009C819C01215031093C832B83892B19F78B
:101FC0000000000026960FB6F894DEBF0FBECDBF0E
:101FD000DF91CF910895CF93DF930F92CDB7DEB706
:101FE000898344E550E060E070E087EC91E00E9476
:101FF00019388091030190910401845B9F4FFC018B
:1020000080818B3A09F461C08BEC93E00E943D2DF6
:1020100044E550E060E070E087EC91E00E94CE344F
:102020008091030190910401805B9F4F21E0FC01AE
:10203000208380910301909104018F5A9F4F22E0E9
:10204000FC0120838091030190910401835B9F4FE9
:1020500021E0FC0120838091030190910401825BC7
:102060009F4F21E0FC0120838091030190910401A6
:10207000855B9F4F21E0FC012083809103019091BB
:102080000401845B9F4F2BEAFC01208380910301B4
:10209000909104018E5A9F4F21E0FC012083809192
:1020A0000301909104018D5A9F4F25E0FC0120838C
:1020B000809103019091040105964DE050E06AE99A
:1020C00071E00E94B3340E946A1000000F90DF910B
:1020D000CF910895CF93DF93CDB7DEB744E550E0BD
:1020E00060E070E087EC91E00E944B380000DF91E7
:1020F000CF910895CF93DF93CDB7DEB744E550E09D
:1021000060E070E087EC91E00E9429380000DF91E8
:10211000CF910895CF93DF93CDB7DEB780910301C0
:1021200090910401805B9F4FFC018081DF91CF91F2
:102130000895CF93DF930F92CDB7DEB78983809157
:10214000030190910401805B9F4F2981FC01208352
:1021500000000F90DF91CF910895CF93DF93CDB71B
:10216000DEB780910301909104018F5A9F4FFC01CB
:102170008081DF91CF910895CF93DF930F92CDB7F8
:10218000DEB7898380910301909104018F5A9F4F9C
:102190002981FC01208300000F90DF91CF910895E9
:1021A000CF93DF930F92CDB7DEB789838091030180
:1021B00090910401835B9F4F2981FC0120830000E3
:1021C0000F90DF91CF910895CF93DF93CDB7DEB716
:1021D0008091030190910401835B9F4FFC018081FA
:1021E000DF91CF910895CF93DF930F92CDB7DEB7F4
:1021F00089838091030190910401825B9F4F298123
:10220000FC01208300000F90DF91CF910895CF93C0
:10221000DF93CDB7DEB78091030190910401825B1B
:102220009F4FFC018081DF91CF910895CF93DF9381
:102230000F92CDB7DEB7898380910301909104019D
:10224000855B9F4F2981FC01208300000F90DF9167
:10225000CF910895CF93DF93CDB7DEB7809103017F
:1022600090910401855B9F4FFC018081DF91CF91AC
:102270000895CF93DF9300D000D0CDB7DEB7698348
:102280007A838B839C83209103013091040189819F
:102290009A81AB81BC81F90180839183A283B3834E
:1022A00000000F900F900F900F90DF91CF91089545
:1022B000CF93DF9300D000D0CDB7DEB7809103017C
:1022C00090910401FC0180819181A281B381898375
:1022D0009A83AB83BC8369817A818B819C810F90C7
:1022E0000F900F900F90DF91CF910895CF93DF93D0
:1022F000CDB7DEB78091C7019091C801A091C90107
:10230000B091CA010196A11DB11D8093C7019093A0
:10231000C801A093C901B093CA010000DF91CF9119
:102320000895CF93DF930F92CDB7DEB78983809165
:102330000301909104018E5A9F4F2981FC01208353
:1023400000000F90DF91CF910895CF93DF93CDB729
:10235000DEB780910301909104018E5A9F4FFC01DA
:102360008081DF91CF910895CF93DF930F92CDB706
:10237000DEB789838091030190910401845B9F4FB4
:102380002981FC01208300000F90DF91CF910895F7
:10239000CF93DF930F92CDB7DEB78983809103018E
:1023A000909104018D5A9F4F2981FC0120830000E8
:1023B0000F90DF91CF910895CF93DF93CDB7DEB724
:1023C00080910301909104018D5A9F4FFC018081FF
:1023D000DF91CF910895CF93DF93CDB7DEB72997E3
:1023E0000FB6F894DEBF0FBECDBF0E94862E6A8363
:1023F0007B838C839D8380917B0390917C03A09150
:102400007D03B0917E032A813B814C815D81281B35
:10241000390B4A0B5B0BDA01C9010B97A105B1051A
:1024200050F080917F03882331F080917F03809367
:102430006D0310927F030E944C30882309F48EC0F4
:102440000E94862E6E837F83888799878E819F81E5
:10245000A885B98580937B0390937C03A0937D032B
:10246000B0937E030E943330898380917F03882F4D
:1024700090E0009719F0039721F170C089818823BB
:1024800009F469C089818D3009F465C089818A3079
:1024900009F461C0898180931B0281E090E09093F0
:1024A00081038093800383E080937F0389818E334F
:1024B00009F051C010921C0210927F038BE192E050
:1024C0004FC080918003909181032981855E9D4F4B
:1024D000DC012C938091800390918103019690936D
:1024E00081038093800380918003909181038034E5
:1024F000914038F0109281031092800310927F0374
:102500002DC08091800390918103029730F18091DA
:102510008003909181030297855E9D4FFC0180812D
:102520008D30D9F480918003909181030197855E6D
:102530009D4FDC018C918A3081F4809180039091D1
:1025400081030297855E9D4FFC01108210927F03EC
:102550008BE192E005C0000001C0000080E090E047
:1025600029960FB6F894DEBF0FBECDBFDF91CF9195
:102570000895CF93DF9300D00F92CDB7DEB71982C5
:1025800008C18981882321F084E690E00E940B2F06
:102590000E940C3180EE93E00E94B93080ED97E00C
:1025A0000E940C15882309F4F1C08AEE93E0BC0167
:1025B0008BE192E00E9487349B838A838A819B818E
:1025C000892B09F455C06CE270E08BE192E00E9427
:1025D000D5349B838A838A819B81892B09F4CFC060
:1025E0008A819B8101969B838A838A819B816CE28D
:1025F00070E00E94D5349B838A838A819B81892BDA
:1026000009F4BFC08A819B8101969B838A838A815A
:102610009B81FC018081082E000C990BC0970A97C2
:1026200008F0B1C08A819B81FC018081082E000CDA
:10263000990BAA0BBB0BC097A109B1098830910572
:10264000A105B10598F48456974CFC010C94B8315F
:1026500082E0A4C083E0A2C085E0A0C086E09EC066
:1026600087E09CC088E09AC084E098C080E096C073
:1026700081EF93E0BC018BE192E00E9487349B8361
:102680008A838A819B81892B09F07FC087EF93E041
:10269000BC018BE192E00E9487349B838A838A810C
:1026A0009B81892B09F472C08A819B8106969B834A
:1026B0008A838A819B8101969B838A838A819B81FD
:1026C000FC018081082E000C990BC0970A9708F036
:1026D00054C08A819B81FC018081082E000C990BDB
:1026E000AA0BBB0BC097A109B10988309105A105C0
:1026F000B10508F03FC08C55974CFC010C94B831E3
:102700000E94E0143AC082E00E94161160E384E364
:1027100091E00E94D4130E947A102FC081E00E94A1
:10272000161160E38AE391E00E94D4130E947A10AC
:1027300024C060E380E491E00E94D41380ED97E030
:102740000E940B2F0E94E01488EE93E00E940B2F52
:102750008BE593E00E94B10810C060E387E491E04C
:102760000E94D41388EB9BE00E940B2F83E00E9411
:10277000161103C0000001C0000082E00FC000007D
:1027800005C0000003C0000001C0000089818F5F08
:1027900089838981853008F4F4CE80E00F900F9012
:1027A0000F90DF91CF910895CF93DF9300D00F92D8
:1027B000CDB7DEB79A8389836B830E940C318EEF8D
:1027C00093E00E94B93088EC90E00E940B2F0E94A9
:1027D0000C318AE094E00E94B93089819A810E948C
:1027E0008C308EE194E00E94B9308B810E94E430FD
:1027F0008BE294E00E94B9306EE471E080ED97E0E6
:102800000E94B115813011F481E001C080E00F9089
:102810000F900F90DF91CF910895CF93DF93CDB7B5
:10282000DEB761970FB6F894DEBF0FBECDBF9F83B2
:102830008E837987688719820E94E01480916903EA
:10284000882389F480916E0390916F03019649F07B
:1028500080916E0390916F03019690936F03809324
:102860006E0380E0A4C08091790390917A031816DA
:1028700019060CF497C080E09AC088EE93E00E949D
:102880000B2F89818F5F89838EE294E02F812F93B4
:102890002E812F93292F2F938F938BE192E0892FF5
:1028A0008F938BE192E08F930E946C350F900F9085
:1028B0000F900F900F900F908BE192E00E948C3060
:1028C0006EE471E080ED97E00E94B115882309F471
:1028D00069C088EC90E00E940B2F87E394E00E948F
:1028E0003D2D04C084EF91E00E940B2F0E94B9128D
:1028F0008530C1F388EC90E00E940B2F0E94B91242
:10290000863049F404C084EF91E00E940B2F0E94AE
:10291000B9128630C1F388EC90E00E940B2F0E9420
:10292000B9128230D1F58885998561E30E94D4136C
:102930000E94862E6A877B878C879D878A859B85E8
:10294000AC85BD850A96A11DB11D8A839B83AC838E
:10295000BD8304C088EE93E00E940B2F0E94B91241
:10296000823099F40E94862E6E877F87888B998BA0
:102970008A819B81AC81BD812E853F85488959899B
:10298000281739074A075B0728F38AE494E00E9476
:102990003D2D0E94E01481E00AC085E594E00E948C
:1029A0003D2D00008981853008F467CF80E0619675
:1029B0000FB6F894DEBF0FBECDBFDF91CF91089563
:1029C000CF93DF9300D0CDB7DEB719821AC08981CB
:1029D000882321F088EC90E00E940B2F0E940C319C
:1029E00080E694E00E94B9306EE471E080ED97E0FB
:1029F0000E94B1158A838A81882339F489818F5F87
:102A000089838981853018F301C000008A810F9085
:102A10000F90DF91CF910895CF93DF93CDB7DEB7BD
:102A20002E970FB6F894DEBF0FBECDBF9E838D8369
:102A30000E94502E6F83788789879A878D819E8127
:102A4000CC01A0E0B0E02F81388549855A85820FFE
:102A5000931FA41FB51F89839A83AB83BC8319C0BE
:102A60000E94502E6B877C878D879E8789819A81F3
:102A7000AB81BC812B853C854D855E858217930794
:102A8000A407B50730F486E694E00E943D2D80E06F
:102A900005C00E94401A882319F381E02E960FB6D4
:102AA000F894DEBF0FBECDBFDF91CF910895CF93D5
:102AB000DF93CDB7DEB760970FB6F894DEBF0FBED9
:102AC000CDBF98878F830E94502E69877A878B8726
:102AD0009C878F819885CC01A0E0B0E029853A855C
:102AE0004B855C85820F931FA41FB51F89839A8332
:102AF000AB83BC8315C00E94502E6D877E878F8765
:102B0000988B89819A81AB81BC812D853E854F85CB
:102B1000588982179307A407B50710F480E018C0FE
:102B20000E94401A882339F380911B028E3311F4DE
:102B300081E00EC088E794E0BC018BE192E00E9446
:102B400087349E838D838D819E81892B49F380E01C
:102B500060960FB6F894DEBF0FBECDBFDF91CF9168
:102B60000895CF93DF93CDB7DEB762970FB6F89491
:102B7000DEBF0FBECDBF98878F837A8769870E949B
:102B8000502E6B877C878D879E878F819885CC019F
:102B9000A0E0B0E02B853C854D855E85820F931FBC
:102BA000A41FB51F89839A83AB83BC8319C00E947D
:102BB000502E6F87788B898B9A8B89819A81AB8114
:102BC000BC812F85388949895A8982179307A407C0
:102BD000B50730F48EE794E00E943D2D80E021C0DF
:102BE0000E94401A882319F389859A85BC018BE1DC
:102BF00092E00E94F3349E838D838D819E81892B88
:102C000011F081E00EC08BE894E0BC018BE192E012
:102C10000E9487349E838D838D819E81892B01F351
:102C200080E062960FB6F894DEBF0FBECDBFDF9195
:102C3000CF910895CF93DF93CDB7DEB76A970FB6E4
:102C4000F894DEBF0FBECDBF6B877C878D879E87D4
:102C50000E94502E6F87788B898B9A8B8B859C85F1
:102C6000AD85BE852F85388949895A89820F931F82
:102C7000A41FB51F89839A83AB83BC8388EC90E043
:102C80000E940B2F0E940C3181E994E00E94B93020
:102C900015C00E94502E6B8B7C8B8D8B9E8B8981F7
:102CA0009A81AB81BC812B893C894D895E898217D1
:102CB0009307A407B50710F480E04EC00E94401AA5
:102CC000882339F38CE994E0BC018BE192E00E9407
:102CD00087349E838D838D819E81892B79F38D81AD
:102CE0009E816CE270E00E94D5349E838D838D813D
:102CF0009E81892B19F38D819E8101969E838D8300
:102D00008D819E814AE050E060E070E00E940033D7
:102D10006F8B788F898F9A8F8F89988DA98DBA8DB7
:102D20008F839887A987BA878F819885A985BA8567
:102D30000197A105B10541F08F819885A985BA85D4
:102D40000597A105B10529F481E08093690381E02D
:102D500003C01092690380E06A960FB6F894DEBF54
:102D60000FBECDBFDF91CF910895CF93DF93CDB745
:102D7000DEB72C970FB6F894DEBF0FBECDBF0E9412
:102D8000862E69837A838B839C83809182039091C2
:102D90008303A0918403B0918503845D9E4FAF4F60
:102DA000BF4F29813A814B815C8182179307A40729
:102DB000B50708F042C060ED77E080E090E00E9447
:102DC0001A16882381F4809186038F5F809386038F
:102DD00083EA94E00E943D2D809186038530CCF0FB
:102DE0000E94711E16C0109286030E94862E6D836B
:102DF0007E838F8398878D819E81AF81B8858093F4
:102E0000820390938303A0938403B093850381E0AE
:102E100015C00E94862E69877A878B879C872985B3
:102E20003A854B855C8520938203309383034093DE
:102E30008403509385030E94A31B80E02C960FB659
:102E4000F894DEBF0FBECDBFDF91CF910895CF9331
:102E5000DF93CDB7DEB728970FB6F894DEBF0FBE6D
:102E6000CDBF0E94BC2E69837A838B839C83809123
:102E7000870390918803A0918903B0918A038056BB
:102E80009A4FAF4FBF4F29813A814B815C818217A6
:102E90009307A407B50760F581E591E00E94751FCF
:102EA0008823A1F48091870390918803A0918903DE
:102EB000B0918A03CC96A11DB11D80938703909396
:102EC0008803A0938903B0938A0312C00E94BC2E8A
:102ED0006D837E838F8398878D819E81AF81B88536
:102EE0008093870390938803A0938903B0938A0308
:102EF00028960FB6F894DEBF0FBECDBFDF91CF91FD
:102F000008950F93CF93DF93CDB7DEB728970FB611
:102F1000F894DEBF0FBECDBF9A8389837C836B8319
:102F20005E834D832F83088729813A818B819C8121
:102F3000A901481B590BCA012885422F50E02F8157
:102F4000222F30E0BA01621B730B9B01829FA0010C
:102F5000839F500D929F500D11242D813E818B81B6
:102F60009C81281B390BCA01B9010E946331CB0136
:102F7000982F8F81890F28960FB6F894DEBF0FBE69
:102F8000CDBFDF91CF910F9108950F93CF93DF9332
:102F9000CDB7DEB72A970FB6F894DEBF0FBECDBF10
:102FA00082E390E00E940B2F0E940C318FEA94E0A4
:102FB0000E94B93067E571E080ED97E00E94B1159D
:102FC000882311F480E047C06AE370E08BE192E06F
:102FD0000E94D5349A83898389819A81892B11F43F
:102FE00080E039C089819A8102969A838983898198
:102FF0009A81DC018C91082E000C990BC0970A97DE
:1030000010F080E028C089819A814AE050E060E0B9
:1030100070E00E9400336F83788789879A878F8159
:103020009885A985BA858B839C83AD83BE838B816C
:103030009C81AD81BE818097A105B10510F080E033
:103040000AC08B819C8104E620E04FE150E062E001
:1030500070E00E9481172A960FB6F894DEBF0FBE6B
:10306000CDBFDF91CF910F910895CF93DF9300D023
:1030700000D00F92CDB7DEB79B838A837D836C83AC
:1030800060ED77E080E090E00E941A168823C1F49A
:1030900080916E0390916F03019649F080916E03C9
:1030A00090916F03019690936F0380936E032C8130
:1030B0003D818A819B81B9010E94BF1880E057C081
:1030C0008091790390917A031816190614F080E024
:1030D0004EC088EC90E00E940B2F87EB94E02D818E
:1030E0002F932C812F93292F2F938F938BE192E095
:1030F000892F8F938BE192E08F930E946C350F9014
:103100000F900F900F900F900F900E940C318BE159
:1031100092E00E948C3088EE93E00E94571588233D
:1031200049F42C813D818A819B81B9010E94BF189D
:1031300080E01DC08A819B810E948C3084E690E0F3
:103140000E940B2F8AE10E94E4306DE571E080E679
:103150009AEE0E94B11589838981882339F42C81E4
:103160003D818A819B81B9010E94BF1889810F909E
:103170000F900F900F900F90DF91CF910895CF9304
:10318000DF9300D000D000D0CDB7DEB79C838B8317
:103190007E836D83198286EC94E02E812F932D819E
:1031A0002F93292F2F938F938BE192E0892F8F9369
:1031B0008BE192E08F930E946C350F900F900F90EF
:1031C0000F900F900F901A8232C08A81882321F0CD
:1031D0008CE291E00E940B2F0E940C318BE192E077
:1031E0000E948C3088EB9BE00E9457158823D9F011
:1031F0000E940C318B819C810E948C3084E190E094
:103200000E940B2F8AE10E94E4306EE471E080EDB1
:1032100097E00E94B11589838981813029F481E08A
:103220008093050107C000008A818F5F8A838A81AD
:103230008A3058F2898126960FB6F894DEBF0FBE09
:10324000CDBFDF91CF910895CF93DF9300D000D011
:103250000F92CDB7DEB79B838A837D836C8360ED4D
:1032600077E080E090E00E941A16882349F42C81D0
:103270003D818A819B81B9010E94BF1880E057C0BF
:103280008091790390917A031816190614F080E062
:103290004EC088EC90E00E940B2F85ED94E02D81CC
:1032A0002F932C812F93292F2F938F938BE192E0D3
:1032B000892F8F938BE192E08F930E946C350F9052
:1032C0000F900F900F900F900F900E940C318BE198
:1032D00092E00E948C3088EE93E00E94571588237C
:1032E00049F42C813D818A819B81B9010E94BF18DC
:1032F00080E01DC08A819B810E94B93084E690E005
:103300000E940B2F8AE10E94E4306DE571E080E6B7
:103310009AEE0E94B11589838981882339F42C8122
:103320003D818A819B81B9010E94BF1889810F90DC
:103330000F900F900F900F90DF91CF910895CF9342
:10334000DF9300D00F92CDB7DEB79B838A831982BB
:103350008091790390917A0318161906D4F521C04B
:103360008981882321F088EE93E00E940B2F8981C8
:10337000282F30E0C901880F991F880F991F880FE7
:10338000991F821B930B880F991F05969C01295347
:103390003E4F8A819B81B9010E94241989818F5FE8
:1033A00089838981282F30E0C901880F991F880FF0
:1033B000991F880F991F821B930B880F991F8453A5
:1033C0009E4FFC0180818B3229F48981853040F247
:1033D00001C000000F900F900F90DF91CF910895E2
:1033E000CF93DF9300D00F92CDB7DEB79B838A8354
:1033F00019828091790390917A0318161906CCF5F9
:1034000020C08981882321F088EE93E00E940B2F51
:103410008981282F30E0C901880F991F880F991FD3
:10342000880F991F821B930B880F991F059689534C
:103430009E4F2A813B81B9010E940D1489818F5FC3
:1034400089838981282F30E0C901880F991F880F4F
:10345000991F880F991F821B930B880F991F845304
:103460009E4FFC0180818B3229F48981853048F29E
:1034700001C000000F900F900F90DF91CF91089541
:10348000CF93DF9300D0CDB7DEB70E94EB119A83C4
:10349000898389819A81892B09F4B9C024EE34E0AB
:1034A00089819A81B9010E948734892B29F081E0B2
:1034B00080936A0381E0ACC02BEE34E089819A816D
:1034C000B9010E948734892B29F189819A81069656
:1034D0009A83898389819A816BE270E00E94D53456
:1034E0009A83898389819A8161E00E94BD2488231F
:1034F00061F081E080936B0389819A814DE050E017
:10350000BC018BE593E00E94B33481E080936C03AF
:1035100081E07EC022EF34E089819A81B9010E9466
:103520008734892B09F471C089819A8106969A8320
:10353000898389819A8101969A83898389819A8175
:10354000FC018081082E000C990BC0970A9708F0A7
:103550005AC089819A81FC018081082E000C990B48
:10356000AA0BBB0BC097A109B10988309105A10531
:10357000B10508F045C08455974CFC010C94B83156
:103580000E94E01440C082E00E94161160E384E3D0
:1035900091E00E94D4130E947A1035C081E00E940D
:1035A000161160E38AE391E00E94D4130E947A101E
:1035B0002AC08091790390917A031816190614F0A5
:1035C00080E026C060E380E491E00E94D41380EDA7
:1035D00097E00E940B2F0E94E01488EE93E00E9477
:1035E0000B2F8BE593E00E94B1080DC060E387E4E8
:1035F00091E00E94D41388EB9BE00E940B2F03C044
:10360000000001C0000081E003C081E001C080E053
:103610000F900F90DF91CF910895CF93DF9300D05B
:103620000F92CDB7DEB79B838A838A819B819C01F1
:103630002F5F3F4F3B832A83FC0180818B3211F047
:1036400080E01AC0198214C08A819B819C012F5F7F
:103650003F4F3B832A83FC018081082E000C990B8D
:10366000C0970A9710F080E007C089818F5F898337
:1036700089818C304CF381E00F900F900F90DF9197
:10368000CF910895CF93DF93CDB7DEB763970FB691
:10369000F894DEBF0FBECDBF9F838E830E94502E55
:1036A000688779878A879B878E819F81CC01A0E07C
:1036B000B0E0288539854A855B85820F931FA41F5A
:1036C000B51F89839A83AB83BC830E94502E6C877D
:1036D0007D878E879F8789819A81AB81BC812C856C
:1036E0003D854E855F85281739074A075B0708F136
:1036F0000E944C30882349F30E9433308D838D81A2
:103700008D830E94502E688B798B8A8B9B8B8E8148
:103710009F81CC01A0E0B0E0288939894A895B8982
:10372000820F931FA41FB51F89839A83AB83BC8329
:10373000CCCF000063960FB6F894DEBF0FBECDBFAE
:10374000DF91CF910895CF93DF93CDB7DEB72C975C
:103750000FB6F894DEBF0FBECDBF80910501882360
:1037600011F480E01CC11C821D821E821F8284E62F
:1037700090E00E940B2F0E940C3189EF94E00E9490
:10378000B93064E671E088E893E10E94B11588875A
:103790008885813009F000C16AE370E08BE192E036
:1037A0000E94D5349B838A838A819B81892B09F46B
:1037B00046C0198212C08A819B8101969B838A83AD
:1037C0008A819B81DC018C91082E000C990BC0979B
:1037D0000A9738F089818F5F89838981853058F312
:1037E00001C000008981853021F41092050180E03C
:1037F000D6C08A819B814AE050E060E070E00E9480
:10380000003369877A878B879C8789859A85AB8502
:10381000BC858C839D83AE83BF838C819D810497FF
:1038200010F00E94EB1D8C819D81AE81BF81892BA0
:103830008A2B8B2B41F41092050180E0B0C01092CE
:10384000050180E0ACC08A819B816CE270E00E943F
:10385000D5349B838A838A819B81892B49F18A8114
:103860009B816CE270E00E94D5349B838A838A81BD
:103870009B81892BE9F08A819B816BE270E00E9439
:10388000D5349B838A838A819B81892B89F08A81A5
:103890009B810E940D1B882359F08A819B814DE0FA
:1038A00050E0BC018BE593E00E94B33410926803B2
:1038B00088EB9BE00E940B2F2C813D8180E195E0FD
:1038C0004BE553E0452F4F934BE553E04F93432F88
:1038D0004F932F93292F2F938F938BE192E0892F72
:1038E0008F938BE192E08F930E946C35ADB7BEB79A
:1038F00018960FB6F894DEBF0FBECDBF0E940C31F4
:103900008BE192E00E948C306BE671E080E69AEEEB
:103910000E94B115888788858130E1F5198236C00B
:1039200084E690E00E940B2F2C813D8182E295E09D
:10393000432F4F932F93292F2F938F938BE192E057
:10394000892F8F938BE192E08F930E946C350F90BB
:103950000F900F900F900F900F908FE295E00E94C4
:103960003D2D0E940C318BE192E00E948C306EE480
:1039700071E080E797E10E94B115888788858130E2
:1039800011F481E00CC089818F5F89838981833044
:1039900038F204C080E003C01092050180E02C964C
:1039A0000FB6F894DEBF0FBECDBFDF91CF91089563
:1039B000CF93DF93CDB7DEB72C970FB6F894DEBF69
:1039C0000FBECDBF80916A03882311F480E0FAC056
:1039D00084E690E00E940B2F0E940C318BE395E06F
:1039E0000E94B93064E671E088E893E10E94B11565
:1039F0008C838C81813009F0D3C06AE370E08BE165
:103A000092E00E94D5349B838A838A819B81892B93
:103A100009F4CCC0198212C08A819B8101969B83D4
:103A20008A838A819B81DC018C91082E000C990B82
:103A3000C0970A9738F089818F5F898389818530A3
:103A400058F301C000008981853009F4B1C08A8132
:103A50009B814AE050E060E070E00E94003369879B
:103A60007A878B879C8789859A85AB85BC858D8372
:103A70009E83AF83B8878D819E81AF81B885009783
:103A8000A140B10508F096C08A819B816CE270E08C
:103A90000E94D5349B838A838A819B81892B09F478
:103AA0008BC08A819B816CE270E00E94D5349B833D
:103AB0008A838A819B81892B09F480C08A819B81BA
:103AC0006BE270E00E94D5349B838A838A819B815C
:103AD000892B91F08A819B810E940D1B882309F418
:103AE0006FC08A819B814DE050E0BC018BE593E083
:103AF0000E94B3341092680388E893E10E940C1589
:103B00008C838C81813009F045C088EE93E00E945F
:103B1000421B8BE192E00E941225198230C084E69C
:103B200090E00E940B2F2D813E8182E595E0432F8E
:103B30004F932F93292F2F938F938BE192E0892F0F
:103B40008F938BE192E08F930E946C350F900F90D2
:103B50000F900F900F900F900E940C318BE192E02C
:103B60000E948C306EE471E080E197E20E94B11512
:103B70008C838C81813039F089818F5F8983898141
:103B8000833068F201C0000084E690E00E940B2FB1
:103B900081E018C00E94EB1D10926A0381E012C000
:103BA0000E94EB1D10926A0380E00CC000001ACF47
:103BB000000018CF000016CF000014CF000012CF75
:103BC000000010CF2C960FB6F894DEBF0FBECDBF0D
:103BD000DF91CF910895CF93DF930F92CDB7DEB7EA
:103BE00084E690E00E940B2F0E940C318FE595E057
:103BF0000E94B9306EE471E088EA91E60E94B11546
:103C0000898389810F90DF91CF910895CF93DF93BE
:103C1000CDB7DEB728970FB6F894DEBF0FBECDBF85
:103C200080916C03882309F452C010926C03809138
:103C30006B03882309F448C084E795E00E94B930FB
:103C400088EE93E00E940B2F60E382E791E00E94F0
:103C5000D41310926B030E94862E69837A838B8320
:103C60009C8389819A81AB81BC818896A11DB11DFD
:103C700080938B0390938C03A0938D03B0938E035A
:103C80001EC088EB9BE00E940B2F0E94862E6D8346
:103C90007E838F83988780918B0390918C03A09172
:103CA0008D03B0918E032D813E814F8158858217FF
:103CB0009307A407B50718F40E94E01409C00E94F6
:103CC000B9128230F1F204C00E94E01401C0000079
:103CD00028960FB6F894DEBF0FBECDBFDF91CF910F
:103CE0000895CF93DF9300D000D0CDB7DEB70E9408
:103CF000581169837A838B839C8389819A81AB81F4
:103D0000BC8180389649A849B10510F40E9476110B
:103D10000E947A108BE290E0DC012C918BE290E023
:103D20002068FC01208383E00E94552F8BE290E005
:103D3000DC012C918BE290E02F77FC012083F8943A
:103D4000FFCFCF93DF93CDB7DEB72D970FB6F894A3
:103D5000DEBF0FBECDBF0E94862E6E837F83888715
:103D600099878E819F81A885B985885A9D4FAF4FCD
:103D7000BF4F89839A83AB83BC830E940C318AE74F
:103D800095E00E94B9306EE471E088EE93E00E9405
:103D9000B1158D838D818823D1F40E94862E6A8788
:103DA0007B878C879D8789819A81AB81BC812A859D
:103DB0003B854C855D8582179307A407B50710F4F2
:103DC0000E94711E88EE93E00E940B2FD6CF000058
:103DD00084EF91E00E940B2F0E940C318FE795E059
:103DE0000E94B93080ED97E00E940B2F0E940C31A9
:103DF00086E895E00E94B9306EE471E088EB9BE0C4
:103E00000E94B1158D838D81882309F452C084EFFF
:103E100091E00E940B2F0E940C3182E995E00E94F4
:103E2000B9306EE471E088EB9BE00E94B1158D83A0
:103E30008D81882309F43FC084EF91E00E940B2F0D
:103E40000E940C3186EA95E00E94B9306EE471E080
:103E500088EB9BE00E94B1158D838D81882369F1E9
:103E600084EF91E00E940B2F0E940C3182EB95E0D1
:103E70000E94B9306EE471E088EB9BE00E94B115BE
:103E80008D838D818823D9F084EF91E00E940B2FE0
:103E90000E940C318BEC95E00E94B9306EE471E029
:103EA00088EB9BE00E94B1158D838D81882349F4B6
:103EB00007C0000062CF000060CF00005ECF0000AE
:103EC0005CCF000060ED77E080E090E00E941A1681
:103ED00083E00E94552F8D812D960FB6F894DEBF9A
:103EE0000FBECDBFDF91CF910895CF93DF93CDB7B4
:103EF000DEB7CF56D1090FB6F894DEBF0FBECDBFE7
:103F00009E012A593F4FF9019183808319821A82B9
:103F10001B821C821D823EC08D81882321F084EF8C
:103F200091E00E940B2F0E940C3187ED95E00E94DA
:103F3000B930CE018A599F4FFC01808191810E9446
:103F40008C3083EE95E00E94B9306EE471E080E140
:103F500097E20E94B1158130D1F40E94862EAC9672
:103F60006CAF7DAF8EAF9FAFAC97AC968CAD9DAD77
:103F7000AEADBFADAC970A96A11DB11D89839A83E2
:103F8000AB83BC8387E791E00E941A2D07C08D8127
:103F90008F5F8D838D81833008F4BECF8D81833018
:103FA00009F0C8C080E0DFC00E94EB119F838E83C0
:103FB0008E819F81892B09F4BDC08E819F8164E829
:103FC00071E00E94F334892B09F4B2C08E819F8185
:103FD00006969F838E838E819F8162E270E00E94AD
:103FE000D5349F838E838E819F81892B11F480E04D
:103FF000BAC08E819F8101969F838E832E813F81DF
:10400000CE0109964CE550E0B9010E94BC34BE01D6
:10401000675F7F4F8E819F8120E030E040E350E07A
:104020000E946F218E819F8160E270E00E94D534F2
:104030009F838E838E819F81892B51F18E819F81F9
:1040400001969F838E838E819F8160E270E00E9443
:10405000D5349F838E838E819F81892B79F08E81C9
:104060009F8101969F838E838E819F8160E20E9453
:104070009B22888788858830F8F014C043E050E0A0
:104080006BE871E080E793E00E94B33480E06BC09E
:1040900043E050E06BE871E080E793E00E94B334C6
:1040A00080E061C043E050E06BE871E080E793E0BE
:1040B0000E94B33480E057C08885282F30E08E817D
:1040C0009F81A901BC0180E793E00E94BC348E81EE
:1040D0009F816FE871E00E94A1349F838E838E815F
:1040E0009F81892B11F480E03EC080E793E00E941D
:1040F0001A2D8E819F810E94483490937A03809379
:1041000079038091790390917A031816190614F0B7
:1041100080E029C08091790390917A030A9744F452
:1041200087EE95E00E943D2D88EF95E00E949F1953
:1041300081E019C00E94862EE0966CAF7DAF8EAFF5
:104140009FAFE09789819A81AB81BC81E0962CADCD
:104150003DAD4EAD5FADE097281739074A075B07C5
:1041600008F422CF80E0C159DF4F0FB6F894DEBFCC
:104170000FBECDBFDF91CF910895CF93DF93CDB721
:10418000DEB780916D03DF91CF910895CF93DF93D8
:1041900000D00F92CDB7DEB78FE590E0FC018081B3
:1041A0008983F89480916E0390916F039B838A8337
:1041B0008FE590E02981FC0120838A819B810F900B
:1041C0000F900F90DF91CF910895CF93DF9300D0A0
:1041D0000F92CDB7DEB79B838A838FE590E0FC0119
:1041E00080818983F8948A819B8190936F03809367
:1041F0006E038FE590E02981FC01208300000F9081
:104200000F900F90DF91CF910895CF93DF9300D05F
:10421000CDB7DEB78A838A8189838981803330F084
:1042200089818A3318F48981805313C0898181344C
:1042300030F08981873418F4898187530AC08981D5
:10424000813630F08981873618F48981875501C01D
:1042500080E00F900F90DF91CF910895CF93DF937F
:10426000CDB7DEB780918F03882389F480916903ED
:10427000813069F485E290E0FC01208185E290E0E4
:104280002061FC01208381E080938F031BC080911B
:1042900069038823B9F4809190038F5F8093900322
:1042A00010928F0380919003833360F085E290E059
:1042B000FC01308185E290E020E12327FC0120838E
:1042C000109290030000DF91CF910895CF93DF9378
:1042D000CDB7DEB78BE593E0DF91CF9108951F93C3
:1042E000CF93DF93CDB7DEB72E970FB6F894DEBF2E
:1042F0000FBECDBF98878F837A8769875C874B878E
:104300003E872D871D821E821A8219821C821B8283
:104310008B859C85880F991F9C878B87E8C02D858E
:104320003E8589819A81820F931F29853A85820F64
:10433000931FFC0180810E940521182F1295107F88
:104340002D853E8589819A81820F931F019629854B
:104350003A85820F931FFC0180810E940521810F05
:104360008D8389819A8102969A8389832D853E85E2
:1043700089819A81820F931F29853A85820F931F25
:10438000FC0180810E940521182F1295107F2D8538
:104390003E8589819A81820F931F019629853A85EE
:1043A000820F931FFC0180810E940521810F8E8363
:1043B00089819A8102969A8389838D81882379F4F1
:1043C0002F8138858B819C81820F931F2E81FC0168
:1043D00020838B819C8101969C838B8388C08E81F6
:1043E000813001F52F8138858B819C81820F931F4D
:1043F00020EDFC0120838B819C8101969C838B8323
:104400008E8140E8480F2F8138858B819C81820FF7
:10441000931F242FFC0120838B819C8101969C8318
:104420008B8365C08E81813501F52F8138858B8125
:104430009C81820F931F21EDFC0120838B819C8145
:1044400001969C838B838E8140E4480F2F813885B1
:104450008B819C81820F931F242FFC0120838B81F1
:104460009C8101969C838B8342C08E81803400F5B1
:104470002F8138858B819C81820F931F20EDFC0159
:1044800020838B819C8101969C838B838E8140E865
:10449000480F2F8138858B819C81820F931F242F99
:1044A000FC0120838B819C8101969C838B831FC0A0
:1044B0002F8138858B819C81820F931F21EDFC0118
:1044C00020838B819C8101969C838B838E8140E429
:1044D000480F2F8138858B819C81820F931F242F59
:1044E000FC0120838B819C8101969C838B83298195
:1044F0003A818B859C852817390708F410CF2F81C6
:1045000038858B819C81820F931FFC0110820000F3
:104510002E960FB6F894DEBF0FBECDBFDF91CF91C0
:104520001F910895CF93DF93CDB7DEB780E793E077
:10453000DF91CF9108950F931F93CF93DF9300D016
:1045400000D0CDB7DEB79B838A836C831982198232
:1045500003C089818F5F89838981082F10E08A8158
:104560009B810E94E0340817190790F48981882FF5
:1045700090E02A813B81820F931FFC018081282FCC
:10458000880F330B8C81882F90E02817390709F7A3
:1045900089810F900F900F900F90DF91CF911F9115
:1045A0000F910895CF93DF930F92CDB7DEB7A89503
:1045B00080E690E029E2FC0120830E94D42F0E9433
:1045C0006B2D0E944F2C78940E9437240E94710D0D
:1045D00089E096E00E943D2D0E947F0819820E948A
:1045E000A11E89838981882321F081E991E00E94BD
:1045F000751F81E00E94EB0F0E94F22E8FE096E083
:104600000E943D2D0E94F22E0E94C9060E94340590
:104610000E94B5160E94061E0E9427170E94D81CF1
:104620000E94940D02C00E94401A0E944C308823C0
:10463000D1F78895E7CFCF93DF93CDB7DEB787E289
:1046400090E0FC01208187E290E02D7FFC01208337
:1046500088E290E0FC01208188E290E02260FC0189
:10466000208387E290E0FC01208187E290E02E7FAA
:10467000FC01208388E290E0FC01208188E290E048
:104680002160FC0120830000DF91CF910895CF933A
:10469000DF93CDB7DEB784E290E0FC01208184E2B5
:1046A00090E02160FC01208385E290E0FC01208104
:1046B00085E290E02E7FFC01208384E290E0FC0103
:1046C000208184E290E02260FC01208385E290E07A
:1046D000FC01208185E290E02D7FFC01208384E2B3
:1046E00090E0FC01208184E290E02460FC012083C2
:1046F00085E290E0FC01208185E290E02B7FFC01C7
:10470000208384E290E0FC01208184E290E0286034
:10471000FC01208385E290E0FC01208185E290E0AD
:10472000277FFC01208387E290E0FC01208187E263
:1047300090E02860FC01208388E290E0FC01208169
:1047400088E290E0277FFC01208387E290E0FC0173
:10475000208187E290E02061FC01208388E290E0E4
:10476000FC01208188E290E02F7EFC0120838AE218
:1047700090E0FC0120818AE290E02460FC0120832B
:104780008BE290E0FC0120818BE290E02B7FFC012A
:1047900020838AE290E0FC0120818AE290E020619F
:1047A000FC0120838BE290E0FC0120818BE290E011
:1047B0002F7EFC0120830000DF91CF910895CF93DD
:1047C000DF93CDB7DEB78AE290E0FC0120818AE278
:1047D00090E02062FC0120838BE290E0FC012081CC
:1047E0008BE290E02F7DFC0120838AE290E0FC01C7
:1047F00020818AE290E02064FC0120838BE290E03B
:10480000FC0120818BE290E02F7BFC0120830000E3
:10481000DF91CF910895CF93DF93CDB7DEB784E2D8
:1048200090E0FC01208184E290E02062FC01208382
:1048300085E290E0FC01208185E290E02F7DFC0183
:10484000208384E290E0FC01208184E290E02061FA
:10485000FC01208385E290E0FC01208185E290E06C
:104860002F7EFC0120830000DF91CF910895CF932C
:10487000DF93CDB7DEB70E94DF238AE290E0FC0130
:1048800020818AE290E02068FC0120838BE290E0A6
:10489000FC0120818BE290E02F77FC0120830E94B5
:1048A0001B230E940B240E9447230000DF91CF911D
:1048B0000895CF93DF9300D0CDB7DEB786E290E0C6
:1048C000FC018081882F90E0A0E0B0E08170992702
:1048D000AA27BB2721E0892B8A2B8B2B09F420E008
:1048E000298386E290E0FC018081882F90E0A0E09F
:1048F000B0E082709927AA27BB2721E0892B8A2B59
:104900008B2B09F420E02A838981882339F48A815A
:10491000882321F483E08093910310C08A81882347
:1049200021F482E08093910309C08981882321F4D6
:1049300081E08093910302C01092910300000F90D8
:104940000F90DF91CF910895CF93DF9300D0CDB733
:10495000DEB78FE590E0FC0180818983F894809137
:1049600091038A838FE590E02981FC0120838A816D
:104970000F900F90DF91CF910895CF93DF9300D0E8
:1049800000D0CDB7DEB79B838A836C838C81813066
:10499000E9F5198238C08981282F30E0C901880FD4
:1049A000991F880F991F880F991F821B930B880FDF
:1049B000991F84539E4FFC0180818B3209F58981B8
:1049C000282F30E0C901880F991F880F991F880F81
:1049D000991F821B930B880F991F05969C012953E1
:1049E0003E4F8A819B814DE050E0B9010E94A63480
:1049F000892B31F48CEF97E00E943D2D81E00BC0B4
:104A000089818F5F89838981853028F285E098E0EC
:104A10000E943D2D80E00F900F900F900F90DF913E
:104A2000CF9108950F931F93CF93DF93CDB7DEB748
:104A3000C454D1400FB6F894DEBF0FBECDBF9E0167
:104A40002D5B3E4FF901918380838E010D5B1E4FDC
:104A5000CE018D5B9E4FFC01808191810E94E934E3
:104A6000F801918380832FE038E0CE018D5B9E4F6B
:104A7000FC018081918144E050E0B9010E946F34D3
:104A8000892B09F06CC00E94662161E00E94BD2460
:104A9000882349F40E9466219C0184E198E0B901D1
:104AA0000E94241945C2CE018D5B9E4F9E012D5B55
:104AB0003E4FF901208131812C5F3F4FFC01318352
:104AC000208319821A821CC08E010D5B1E4FCE01FD
:104AD0008D5B9E4FFC01808191810E94CC28F80162
:104AE00091838083CE018D5B9E4FFC0180819181FB
:104AF000892B21F089818F5F898302C081E08A83BD
:104B0000CE018D5B9E4FFC0180819181892B51F0FC
:104B1000CE018D5B9E4FFC0180819181FC018081E3
:104B2000882391F68981882371F08A81882359F43A
:104B30000E947A100E9466219C0182E298E0B901ED
:104B40000E942419F5C180E00E94EB0F0E946621AB
:104B50009C0185E298E0B9010E942419E9C12BE289
:104B600038E0CE018D5B9E4FFC018081918144E055
:104B700050E0B9010E946F34892B09F092C00E9465
:104B8000662161E00E94BD24882349F40E946621C9
:104B90009C0180E398E0B9010E942419C9C1CE01AB
:104BA0008D5B9E4F9E012D5B3E4FF901208131812F
:104BB0002C5F3F4FFC01318320831B8219821A82B4
:104BC00031C0CE0103960E94E0349C01CE010396D1
:104BD000280F391F8E010D5B1E4FCE018D5B9E4F3E
:104BE000FC0180819181B9010E94A427F801918381
:104BF0008083CE018D5B9E4FFC0180819181892B4A
:104C000021F089818F5F898303C081E08A831DC081
:104C1000CE0103960E94E034813A910518F082E0BB
:104C20008A8313C0CE018D5B9E4FFC0180819181F0
:104C3000892B59F0CE018D5B9E4FFC0180819181C3
:104C4000FC018081882309F0BCCF8981882381F011
:104C50008A81882369F40E9466219C01CE01039613
:104C6000B9010E9435188EE398E00E943D2D60C185
:104C70008A81813049F40E9466219C0189E498E090
:104C8000B9010E94241954C18A81823009F050C1AF
:104C90000E9466219C018FE498E0B9010E942419CA
:104CA00047C12EE638E0CE018D5B9E4FFC0180812E
:104CB00091814DE050E0B9010E946F34892B01F5DC
:104CC0000E94662161E00E94BD24882349F40E946D
:104CD00066219C018CE798E0B9010E94241928C143
:104CE00080E00E94B4110E947A100E9466219C010B
:104CF0008AE898E0B9010E9424190E94711E18C127
:104D00002FEB38E0CE018D5B9E4FFC0180819181BD
:104D100047E050E0B9010E946F34892BD9F40E941A
:104D2000662161E00E94BD24882349F40E94662127
:104D30009C0187EC98E0B9010E942419F9C00E94F7
:104D400066219C0185ED98E0B9010E9424190E941A
:104D5000711EEEC02DEE38E0CE018D5B9E4FFC0142
:104D60008081918145E050E0B9010E946F34892B28
:104D7000C1F40E94662161E00E94BD24882349F4A9
:104D80000E9466219C0183EF98E0B9010E942419DA
:104D9000CFC00E946621BC0189E196E00E942419DF
:104DA000C7C021E039E0CE018D5B9E4FFC018081C0
:104DB000918148E050E0B9010E946F34892BC1F421
:104DC0000E94662161E00E94BD24882349F40E946C
:104DD00066219C018AE099E0B9010E942419A8C0CB
:104DE0000E946621BC018AEB96E00E942419A0C0B3
:104DF00028E139E0CE018D5B9E4FFC0180819181DD
:104E000048E050E0B9010E946F34892BC1F40E9440
:104E1000662161E00E94BD24882349F40E94662136
:104E20009C0181E299E0B9010E94241981C00E948D
:104E30006621BC018BE597E00E94241979C02FE21E
:104E400039E0CE018D5B9E4FFC018081918147E06E
:104E500050E0B9010E946F34892BA9F40E946621A9
:104E600061E00E94BD24882349F40E9466219C01D0
:104E700087E399E0B9010E9424195AC00E94662173
:104E80000E94B10855C025E439E0CE018D5B9E4FEC
:104E9000FC01808191814CE050E0B9010E946F34A7
:104EA000892B09F045C08091CB01882339F00E94FD
:104EB000662161E00E94BD24813089F5CE018D5BC1
:104EC0009E4F9E012D5B3E4FF90120813181245F71
:104ED0003F4FFC01318320838E010D5B1E4FCE01BD
:104EE0008D5B9E4FFC018081918145E06CEC71E00F
:104EF0000E94502AF8019183808381E08093CB0146
:104F00000E947A100E9466219C0182E599E0B90115
:104F10000E94241985E599E00E943D2D09C00E9458
:104F200066219C0182E699E0B9010E9424190000E3
:104F3000CC5BDE4F0FB6F894DEBF0FBECDBFDF9166
:104F4000CF911F910F910895CF93DF9300D000D0A0
:104F500000D0CDB7DEB79C838B837E836D8320E743
:104F600039E08B819C814CE050E0B9010E946F34A4
:104F7000892B09F085C08B819C810C969C838B8347
:104F80008DE799E0292F2F938F938E818F938D81B9
:104F90008F930E946C350F900F900F900F909C0193
:104FA0008D819E81820F931F9E838D8319821A8229
:104FB00047C08A81282F30E0C901880F991F880FC8
:104FC000991F880F991F821B930B880F991F845379
:104FD0009E4FFC0180818B32C1F58A81282F30E001
:104FE000C901880F991F880F991F880F991F821B6D
:104FF000930B880F991F05969C0129533E4F8AE811
:1050000099E0432F4F932F93292F2F938F938E81C6
:105010008F938D818F930E946C350F900F900F901E
:105020000F900F900F909C018D819E81820F931F96
:105030009E838D8389818F5F89838A818F5F8A8335
:105040008A81853008F4B5CF01C0000089818823AA
:1050500029F08D819E8101979E838D838EE899E052
:10506000292F2F938F938E818F938D818F930E9401
:105070006C350F900F900F900F908B819C8183C0A7
:1050800020E939E08B819C814DE050E0B9010E941C
:105090006F34892B01F58B819C810D969C838B83CA
:1050A00080911402282F30E08EE999E0432F4F932E
:1050B0002F93292F2F938F938E818F938D818F9391
:1050C0000E946C350F900F900F900F900F900F90E3
:1050D0008B819C8158C02FEA39E08B819C814BE009
:1050E00050E0B9010E946F34892B01F58B819C81BE
:1050F0000B969C838B8380911502282F30E08BEBDD
:1051000099E0432F4F932F93292F2F938F938E81C5
:105110008F938D818F930E946C350F900F900F901D
:105120000F900F900F908B819C812DC02AEC39E05D
:105130008B819C814CE050E0B9010E946F34892B37
:1051400001F58B819C810C969C838B838091190245
:10515000282F30E087ED99E0432F4F932F93292F8D
:105160002F938F938E818F938D818F930E946C35B7
:105170000F900F900F900F900F900F908B819C814C
:1051800002C080E090E026960FB6F894DEBF0FBE16
:10519000CDBFDF91CF910895CF93DF93CDB7DEB729
:1051A0002A970FB6F894DEBF0FBECDBF9E838D83C6
:1051B00027EE39E08D819E814DE050E0B9010E94DB
:1051C0006F34892BA1F58D819E810D969E838D83F1
:1051D0008D819E81FC018081803311F419820CC085
:1051E0008D819E81FC018081813319F481E0898366
:1051F00003C080E090E04BC18D819E8101969E832B
:105200008D838D819E81FC0180818B3319F080E03C
:1052100090E03DC189810E94D0100E947A108D815A
:105220009E8101969E838D838D819E8130C125EF65
:1052300039E08D819E814BE050E0B9010E946F34CE
:10524000892BA1F58D819E810B969E838D838D8107
:105250009E81FC018081803311F41A820CC08D8103
:105260009E81FC018081813319F481E08A8303C02F
:1052700080E090E00CC18D819E8101969E838D839C
:105280008D819E81FC0180818B3319F080E090E05C
:10529000FEC08A81809315020E947A108D819E81C2
:1052A00001969E838D838D819E81F1C021E03AE03D
:1052B0008D819E8149E050E0B9010E946F34892BB5
:1052C000A1F58D819E8109969E838D838D819E811E
:1052D000FC018081803311F41B820CC08D819E8182
:1052E000FC018081813319F481E08B8303C080E06D
:1052F00090E0CDC08D819E8101969E838D838D81AE
:105300009E81FC0180818B3319F080E090E0BFC06A
:105310008B81809319020E947A108D819E81019663
:105320009E838D838D819E81B2C02BE03AE08D817A
:105330009E8148E050E0B9010E946F34892B41F50D
:105340008D819E8108969E838D838D819E81FC0137
:105350008081803331F481E0809312020E947A10C0
:105360000FC08D819E81FC018081813331F482E008
:10537000809312020E947A1003C080E090E087C000
:105380008D819E8101969E838D838D819E817FC0BC
:1053900024E13AE08D819E8148E050E0B9010E940D
:1053A0006F34892B41F58D819E8142969E838D833A
:1053B0008D819E81FC018081803331F482E0809375
:1053C00012020E947A100FC08D819E81FC018081A3
:1053D000813331F481E0809312020E947A1003C07D
:1053E00080E090E054C08D819E8101969E838D83E4
:1053F0008D819E814CC02CE13AE08D819E814CE0F4
:1054000050E0B9010E946F34892B09F03EC08D81B4
:105410009E810C969E838D838D819E81FC0180816F
:10542000082E000C990BC0970A9718F080E090E0C6
:105430002EC08D819E819E012B5F3F4F4AE050E040
:10544000B9010E9400336F83788789879A87FF812B
:10545000FC838C818B3F18F080E090E018C08D8138
:105460009E81FC0180818B3319F080E090E00FC0B9
:105470008C810E94C8110E947A108D819E810196B4
:105480009E838D838D819E8102C080E090E02A966C
:105490000FB6F894DEBF0FBECDBFDF91CF91089558
:1054A000CF93DF93CDB7DEB72A970FB6F894DEBF60
:1054B0000FBECDBF9F838E83798768874A878E8191
:1054C0009F819C838B8319821D8215C08D81282F1B
:1054D00030E0C901880F991F880F991F880F991F05
:1054E000821B930B880F991F84539E4FFC011082DF
:1054F0008D818F5F8D838D81853040F32AC08981B6
:105500008F5F89838981282F30E08A85082E000CDF
:10551000990B821793071CF480E090E094C08B8174
:105520009C810D969C838B838B819C81FC01808167
:105530008B33B1F08B819C81FC0180818C3231F402
:105540008B819C8101969C838B8303C080E090E0DB
:105550007AC08B819C810E940D1B882381F601C03B
:1055600000008E819F819C838B831A8237C08A8141
:10557000282F30E0C901880F991F880F991F880FC5
:10558000991F821B930B880F991F9C018885998511
:10559000820F931F2B813C814DE050E0B9010E94A6
:1055A000B3348A81282F30E0C901880F991F880FF2
:1055B000991F880F991F821B930B880F991F0D96B7
:1055C00028853985820F931FFC0110828B819C8175
:1055D0000E969C838B838A818F5F8A839A818981CF
:1055E000981728F28A85282F880F330B8981882FF6
:1055F00090E0281B390BC901880F991F880F991F4C
:10560000880F991F821B930B880F991FAC0189810A
:10561000282F30E0C901880F991F880F991F880F24
:10562000991F821B930B880F991F9C018885998570
:10563000820F931F60E070E00E94CE3481E080937F
:10564000CB018B819C812A960FB6F894DEBF0FBEEA
:10565000CDBFDF91CF9108951F920F920FB60F9299
:1056600011242F938F939F93EF93FF93CF93DF9307
:1056700000D00F92CDB7DEB78091B6038130E1F54F
:105680008091B703898389818150898389818823A7
:1056900081F58091B9039091BA0381709927892B84
:1056A00051F08BE290E0FC0120818BE290E02860D9
:1056B000FC01208309C08BE290E0FC0120818BE299
:1056C00090E0277FFC0120838091B9039091BA0379
:1056D000969587959093BA038093B90383E0898365
:1056E0008091B80381508093B803882311F41092FD
:1056F000B60389818093B7038091B403882309F0AE
:1057000073C08091BB03882319F18091BC03815041
:105710008093BC038091BC03882309F065C010927C
:10572000BB031092B5032091BD038091B203882F73
:1057300090E08E569C4FFC0120838091B2038F5FD6
:105740008093B203803208F44FC01092B2034CC071
:105750008091B5038823C9F489E290E0FC0180813F
:1057600084708B838B81882309F03EC081E0809315
:10577000B5031092BD0384E08093BC0388E080935E
:10578000BE0381E08093BF032FC08091BC03898357
:105790008981815089838981882319F583E08983F0
:1057A00089E290E0FC01808184708A838A81882369
:1057B00039F09091BD038091BF03892B8093BD0385
:1057C0008091BF03880F8093BF038091BE038150F7
:1057D0008093BE038091BE03882319F481E08093F7
:1057E000BB0389818093BC0300000F900F900F9042
:1057F000DF91CF91FF91EF919F918F912F910F901A
:105800000FBE0F901F901895CF93DF93CDB7DEB7E3
:105810008AE290E0FC0120818AE290E02860FC01AD
:1058200020838AE290E0FC0120818AE290E02B7FD5
:10583000FC0120830000DF91CF910895CF93DF9387
:105840000F92CDB7DEB78FE590E0FC0180818983B0
:10585000F89483EB90E02FE1FC01208380EB90E053
:1058600022E0FC01208381EB90E022E0FC01208318
:1058700080E790E0FC01208180E790E02260FC015D
:10588000208382EB90E0FC0110828FE590E029817B
:10589000FC01208300000F90DF91CF910895CF93FA
:1058A000DF93CDB7DEB71092B6031092B503109216
:1058B000B4038BE290E0FC0120818BE290E0286051
:1058C000FC0120830E94042C0E941E2C0000DF910A
:1058D000CF910895CF93DF93CDB7DEB70000DF916E
:1058E000CF910895CF93DF93CDB7DEB71092B40375
:1058F0000000DF91CF910895CF93DF93CDB7DEB74E
:1059000081E08093B4030000DF91CF910895CF939D
:10591000DF930F92CDB7DEB702C00E946A2C909140
:10592000B3038091B2039817C1F38091B303882F1A
:1059300090E08E569C4FFC01808189838091B30357
:105940008F5F8093B3038091B303803210F0109285
:10595000B30389810F90DF91CF910895CF93DF93A7
:10596000CDB7DEB72091B2039091B30381E0291740
:1059700009F480E0DF91CF910895CF93DF93CDB705
:10598000DEB71092B2031092B3030000DF91CF9103
:105990000895CF93DF93CDB7DEB79091B60381E042
:1059A000913009F080E0DF91CF910895CF93DF939C
:1059B0000F92CDB7DEB7898300008091B6038130A6
:1059C000E1F383E08093B7038AE08093B803898191
:1059D000082E000C990B880F991F92609093BA03C0
:1059E0008093B90381E08093B60300000F90DF91AC
:1059F000CF910895CF93DF9300D0CDB7DEB79A83D0
:105A000089830BC089819A819C012F5F3F4F3A8324
:105A10002983FC0180810E94D62C89819A81FC0116
:105A20008081882379F7000000000F900F90DF91AC
:105A3000CF910895CF93DF9300D0CDB7DEB79A838F
:105A400089830BC089819A819C012F5F3F4F3A83E4
:105A50002983FC0180810E94D62C89819A81FC01D6
:105A60008081882379F787E991E00E94FA2C000071
:105A70000F900F90DF91CF910895CF93DF9300D0D7
:105A800000D000D0CDB7DEB79E838D8303C08C815C
:105A90000E94D62C8D819E819C012F5F3F4F3E83BB
:105AA0002D839A83898389819A81FC0184918B83D8
:105AB0008B818C838C81882351F787E991E00E9448
:105AC000FA2C000026960FB6F894DEBF0FBECDBFAD
:105AD000DF91CF910895CF93DF93CDB7DEB7F894E0
